:020000040800F2
:1000000000000220ED0F0008050E00080B0E00088E
:10001000110E0008170E00081D0E00080000000059
:10002000000000000000000000000000230E000897
:10003000310E0008000000003F0E00084D0E0008C1
:100040003D1000083D1000083D1000083D1000085C
:100050003D1000083D1000083D1000083D1000084C
:100060003D1000083D1000083D1000083D1000083C
:100070003D1000083D1000083D1000083D1000082C
:100080003D1000083D1000083D1000083D1000081C
:10009000590E00083D1000083D1000083D100008F2
:1000A0003D1000083D1000083D1000083D100008FC
:1000B0003D1000083D1000083D1000083D100008EC
:1000C0003D1000083D1000083D1000083D100008DC
:1000D0003D1000083D1000083D1000083D100008CC
:1000E0003D1000083D1000083D1000083D100008BC
:1000F0003D1000083D1000083D1000083D100008AC
:100100003D1000083D1000083D1000083D1000089B
:100110003D1000083D1000083D1000083D1000088B
:100120003D1000083D1000083D1000083D1000087B
:100130003D10000800000000000000003D10000815
:100140003D1000086D0E00083D1000083D1000082D
:100150003D1000083D1000083D1000083D1000084B
:100160003D1000083D1000083D1000083D1000083B
:100170003D1000083D1000080000000000000000D5
:080180003D1000083D100008CD
:1001900010B5054C237833B9044B13B10448AFF3C1
:1001A00000800123237010BD7000002000000000BB
:1001B000D044000808B5034B1BB103490348AFF313
:1001C000008008BD0000000074000020D04400083A
:1001D00001F0FF01102A2BDB10F0070F08D010F8F8
:1001E000013B013A8B422DD010F0070F42B3F6D1FC
:1001F000F0B441EA012141EA014122F007047FF015
:1002000000070023F0E80256083C85EA010586EA6B
:10021000010685FA47F5A3FA87F586FA47F6A5FAA7
:1002200087F68EB9EED1F0BC01F0FF0102F00702B3
:1002300032B110F8013B013A83EA010313B1F8D15E
:100240000020704701387047002D06BF354603383F
:10025000073815F0010F07D1013015F4807F02BF78
:10026000013015F4C03F0130F0BC0138704700BFC9
:1002700053B94AB9002908BF00281CBF4FF0FF310D
:100280004FF0FF3000F074B9ADF1080C6DE904CE09
:1002900000F006F8DDF804E0DDE9022304B0704761
:1002A0002DE9F047089D04468E46002B4DD18A4229
:1002B000944669D9B2FA82F252B101FA02F3C2F15C
:1002C000200120FA01F10CFA02FC41EA030E9440ED
:1002D0004FEA1C48210CBEFBF8F61FFA8CF708FB0E
:1002E00016E341EA034306FB07F199420AD91CEBE6
:1002F000030306F1FF3080F01F81994240F21C8118
:10030000023E63445B1AA4B2B3FBF8F008FB10335F
:1003100044EA034400FB07F7A7420AD91CEB040494
:1003200000F1FF3380F00A81A74240F20781644464
:10033000023840EA0640E41B00261DB1D4400023E9
:10034000C5E900433146BDE8F0878B4209D9002D4D
:1003500000F0EF800026C5E9000130463146BDE8D7
:10036000F087B3FA83F6002E4AD18B4202D3824241
:1003700000F2F980841A61EB030301209E46002DF0
:10038000E0D0C5E9004EDDE702B9FFDEB2FA82F245
:10039000002A40F09280A1EB0C014FEA1C471FFAA3
:1003A0008CFE0126200CB1FBF7F307FB131140EA8A
:1003B00001410EFB03F0884208D91CEB010103F157
:1003C000FF3802D2884200F2CB804346091AA4B219
:1003D000B1FBF7F007FB101144EA01440EFB00FEED
:1003E000A64508D91CEB040400F1FF3102D2A64552
:1003F00000F2BB800846A4EB0E0440EA03409CE7F1
:10040000C6F12007B34022FA07FC4CEA030C20FA9D
:1004100007F401FA06F31C43F9404FEA1C4900FABD
:1004200006F3B1FBF9F8200C1FFA8CFE09FB18113A
:1004300040EA014108FB0EF0884202FA06F20BD9AD
:100440001CEB010108F1FF3A80F08880884240F2FD
:100450008580A8F102086144091AA4B2B1FBF9F041
:1004600009FB101144EA014100FB0EFE8E4508D93C
:100470001CEB010100F1FF346CD28E456AD90238C1
:10048000614440EA0840A0FB0294A1EB0E01A142A6
:10049000C846A64656D353D05DB1B3EB080261EB14
:1004A0000E0101FA07F722FA06F3F1401F43C5E9EE
:1004B000007100263146BDE8F087C2F12003D84024
:1004C0000CFA02FC21FA03F3914001434FEA1C4766
:1004D0001FFA8CFEB3FBF7F007FB10360B0C43EA58
:1004E000064300FB0EF69E4204FA02F408D91CEB08
:1004F000030300F1FF382FD29E422DD90238634406
:100500009B1B89B2B3FBF7F607FB163341EA0341A5
:1005100006FB0EF38B4208D91CEB010106F1FF38F4
:1005200016D28B4214D9023E6144C91A46EA0046EB
:1005300038E72E46284605E70646E3E61846F8E67D
:100540004B45A9D2B9EB020864EB0C0E0138A3E7C6
:100550004646EAE7204694E74046D1E7D0467BE7A7
:10056000023B614432E7304609E76444023842E71F
:10057000704700BF80B485B000AF0023BB6022E0AD
:10058000BB68FB730023FB7112E097F90F30002B5F
:1005900007DAFB7B5B005BB283F01D035BB2DBB26F
:1005A00002E0FB7B5B00DBB2FB73FB790133FB7189
:1005B000FB79072BE9D9094ABB681344FA7B1A7007
:1005C000BB680133BB60BB68FF2BD9DD00BF00BF38
:1005D0001437BD465DF8047B704700BFB0010020B2
:1005E00080B485B000AF78600B46FB707B68FB6021
:1005F000FF23FB720AE0FB685A1CFA601A78FB7A48
:100600005340DBB21A46084B9B5CFB72FB785A1EC8
:10061000FA70002BEFD1FB7ADB43DBB218461437BC
:10062000BD465DF8047B7047B001002080B584B002
:1006300000AF786001220221214801F09DFE214B8C
:10064000214A0021786801F08CF81F4B1B69082BA8
:1006500032D11E4802F050FF0023FB7309E0FB7B00
:10066000184AD35C19461A4802F046FFFB7B013357
:10067000FB73FB7B072BF2D90A2002F055FF002207
:1006800002210F4801F078FE0E4BDB790133DAB21C
:100690000C4BDA710B4BDA790E4B9A7107210D482E
:1006A000FFF79EFF03461A460A4BDA710A4B094AC6
:1006B0000A490B4800F07AFF00BF1037BD4680BDE5
:1006C000000402405C01002038010020E8440008DA
:1006D000FC44000854010020640100202001002097
:1006E0008C00002080B584B000AF78600122042126
:1006F000174801F041FE174B174A0121786801F0B5
:1007000030F8154B1B69082B1ED1144802F0F4FE7B
:100710000023FB7309E0FB7B0E4AD35C19461048AB
:1007200002F0EAFEFB7B0133FB73FB7B072BF2D964
:100730000A2002F0F9FE00220421054801F01CFE07
:10074000044B9A79074BDA7100BF1037BD4680BD64
:1007500000040240A40100208001002000450008A0
:10076000FC4400089C01002080B500AF00F068FC4C
:10077000FFF700FF00F07EF800F0BCF900F0E4F8AD
:1007800000F038F900F08CF9324800F0CBFE324826
:1007900000F0C8FE02212F4801F0F5F810212E4884
:1007A00001F0F1F82D4B08221A612C4B00229A60BF
:1007B0002A4B0022DA60294B12221A60284B55225C
:1007C0001A70274B55225A70254B55229A70244B8C
:1007D0005522DA70224B55221A71214B55225A713B
:1007E0001F4B00229A711E4B0022DA711D4B08220A
:1007F0001A611C4B00229A601A4B0022DA60194BD6
:10080000A2221A60184BAA221A70174BAA225A70F9
:10081000154BAA229A70144BAA22DA70124BAA2204
:100820001A71114BAA225A710F4BAA229A710E4BC0
:100830000022DA7101210D4801F0B7FD0C4B0A4A84
:100840000849054800F0B2FE4FF47A7000F06AFCE7
:10085000F0E700BF8C000020B40000202001002041
:1008600054010020680100209C0100200004024087
:10087000AC01002080B594B000AF07F12003302216
:100880000021184602F030FE07F10C0300221A6026
:100890005A609A60DA601A610023BB60284B1B6CB7
:1008A000274A43F080531364254B1B6C03F080539D
:1008B000BB60BB6800237B60224B1B68214A43F46A
:1008C000804313601F4B1B6803F480437B607B688D
:1008D00002233B620123FB6210233B630223BB63C1
:1008E0000023FB6308233B6454237B640223BB6423
:1008F0000423FB6407F12003184601F071FD034651
:10090000002B01D000F058F90F23FB6002233B615C
:1009100000237B614FF48053BB614FF48053FB6134
:1009200007F10C030221184601F0D2FF0346002B09
:1009300001D000F041F900BF5037BD4680BD00BF77
:10094000003802400070004080B58AB000AF274BED
:10095000274A1A60254B04225A60244B00229A60D1
:10096000224B4FF08072DA60204B4FF470221A61F4
:100970001E4B4FF440125A611C4B00221A761B4B3F
:1009800001225A76194B01229A76184B0022DA7608
:10099000164B00221A77154B00225A77134800F0A5
:1009A000E5FB0346002B01D000F006F901233B6272
:1009B00012237B6100233B614FF4A2533B60002371
:1009C0007B604FF4A253BB600023FB600023BB613C
:1009D0000123FB6114237B623B461946034800F068
:1009E000C1FC00BF2837BD4680BD00BF8C00002081
:1009F0000064004080B58AB000AF274B274A1A60D8
:100A0000254B04225A60244B00229A60224B4FF05F
:100A10008072DA60204B4FF470221A611E4B4FF443
:100A200040125A611C4B00221A761B4B01225A7647
:100A3000194B01229A76184B0022DA76164B0022C7
:100A40001A77154B00225A77134800F08FFB0346A4
:100A5000002B01D000F0B0F801233B6213237B612F
:100A600001233B614FF410733B6000237B604FF424
:100A70001073BB600023FB600023BB610123FB619B
:100A800000237B623B461946034800F06BFC00BF25
:100A90002837BD4680BD00BFB4000020006800407C
:100AA00080B500AF114B124A1A60104B4FF4E1327F
:100AB0005A600E4B00229A600C4B0022DA600B4BFE
:100AC00000221A61094B0C225A61084B00229A61DC
:100AD000064B0022DA61054802F01AF90346002BA2
:100AE00001D000F069F800BF80BD00BFDC0000202D
:100AF0000010014080B588B000AF07F10C03002260
:100B00001A605A609A60DA601A610023BB601F4B5A
:100B10001B6B1E4A43F0800313631C4B1B6B03F0DB
:100B20008003BB60BB6800237B60184B1B6B174ABC
:100B300043F002031363154B1B6B03F002037B604E
:100B40007B6800233B60114B1B6B104A43F0010391
:100B500013630E4B1B6B03F001033B603B680022E9
:100B60000F210B4801F008FC0F23FB6001233B61C0
:100B700000237B610023BB6107F10C031946044885
:100B800001F05EFA00BF2037BD4680BD003802404C
:100B90000004024080B582B000AF7860391D642344
:100BA0000122044802F001F97B6818460837BD4667
:100BB00080BD00BFDC00002080B400AF72B600BF73
:100BC000FEE7000080B483B000AF00237B60104BD1
:100BD0005B6C0F4A43F4804353640D4B5B6C03F42E
:100BE00080437B607B6800233B60094B1B6C084A99
:100BF00043F080531364064B1B6C03F080533B603F
:100C00003B6800BF0C37BD465DF8047B704700BFF2
:100C10000038024080B58CB000AF786007F11C034B
:100C200000221A605A609A60DA601A617B681B6859
:100C30004A4A93423ED14A4B1B680133484A1360EB
:100C4000474B1B68012B0DD10023BB61454B1B6C2F
:100C5000444A43F000731364424B1B6C03F000736F
:100C6000BB61BB6900237B613E4B1B6B3D4A43F07C
:100C7000010313633B4B1B6B03F001037B617B6937
:100C80004FF4C053FB6102233B6200237B620323CA
:100C9000BB620923FB6207F11C031946324801F0CD
:100CA000CFF900220021142001F093F9142001F063
:100CB000ACF94FE07B681B682C4A93424AD1002371
:100CC0003B61284B1B6C274A43F080631364254B20
:100CD0001B6C03F080633B613B69214B1B68013354
:100CE0001F4A13601E4B1B68012B0DD10023FB60B4
:100CF0001C4B1B6C1B4A43F000731364194B1B6C99
:100D000003F00073FB60FB680023BB60154B1B6B9B
:100D1000144A43F002031363124B1B6B03F00203EC
:100D2000BB60BB686023FB6102233B6200237B62E4
:100D30000323BB620923FB6207F11C0319460C481D
:100D400001F07EF900220021412001F042F941200A
:100D500001F05BF900BF3037BD4680BD0064004044
:100D6000B00200200038024000000240006800404D
:100D70000004024080B58AB000AF786007F1140328
:100D800000221A605A609A60DA601A617B681B68F8
:100D9000194A93422CD100233B61184B5B6C174AD4
:100DA00043F010035364154B5B6C03F010033B617D
:100DB0003B690023FB60114B1B6B104A43F001039E
:100DC00013630E4B1B6B03F00103FB60FB684FF4D6
:100DD000C0637B610223BB610023FB6103233B6291
:100DE00007237B6207F114031946054801F028F92F
:100DF00000BF2837BD4680BD0010014000380240CA
:100E00000000024080B400AFFEE780B400AFFEE710
:100E100080B400AFFEE780B400AFFEE780B400AF5F
:100E2000FEE780B400AF00BFBD465DF8047B7047AD
:100E300080B400AF00BFBD465DF8047B704780B44E
:100E400000AF00BFBD465DF8047B704780B500AFC2
:100E500000F048F900BF80BD80B500AF024800F047
:100E6000B8FD00BF80BD00BF8C00002080B500AF82
:100E7000024800F0AEFD00BF80BD00BFB4000020FE
:100E800080B586B000AFF860B9607A6000237B61FE
:100E90000AE0AFF300800146BB685A1CBA60CAB2D0
:100EA0001A707B6901337B617A697B689A42F0DB57
:100EB0007B6818461837BD4680BD80B586B000AF48
:100EC000F860B9607A6000237B6109E0BB685A1C56
:100ED000BA601B781846FFF75DFE7B6901337B61C2
:100EE0007A697B689A42F1DB7B6818461837BD4601
:100EF00080BD80B483B000AF78604FF0FF331846F8
:100F00000C37BD465DF8047B704780B483B000AFFA
:100F1000786039603B684FF400525A6000231846ED
:100F20000C37BD465DF8047B704780B483B000AFDA
:100F30007860012318460C37BD465DF8047B704786
:100F400080B485B000AFF860B9607A6000231846BD
:100F50001437BD465DF8047B7047000080B586B04D
:100F600000AF7860144A154BD31A7B617B693B61F3
:100F7000134B1B68002B02D1114B124A1A60104B05
:100F80001A687B6813443A699A4207D202F082FADF
:100F900003460C221A604FF0FF3309E0084B1B6830
:100FA000FB60074B1A687B681344054A1360FB68B3
:100FB00018461837BD4680BD00000220000400001E
:100FC000B4020020D002002080B400AF064BD3F85A
:100FD0008830054A43F47003C2F8883000BFBD462C
:100FE0005DF8047B704700BF00ED00E0DFF834D00F
:100FF0000D480E490E4A002302E0D458C450043371
:10100000C4188C42F9D30B4A0B4C002301E0136047
:101010000432A242FBD3FFF7D7FF02F041FAFFF7F9
:10102000A3FB704700000220000000207000002099
:10103000D445000870000020CC020020FEE700002C
:1010400080B500AF0E4B1B680D4A43F4007313606C
:101050000B4B1B680A4A43F480631360084B1B6800
:10106000074A43F480731360032000F0A7FF0F20AA
:1010700000F008F8FFF7A6FD0023184680BD00BF6A
:10108000003C024080B582B000AF7860124B1A6815
:10109000124B1B7819464FF47A73B3FBF1F3B2FB92
:1010A000F3F3184600F0BFFF0346002B01D00123E5
:1010B0000EE07B680F2B0AD8002279684FF0FF30D2
:1010C00000F087FF064A7B681360002300E00123DD
:1010D00018460837BD4680BD0000002008000020EB
:1010E0000400002080B400AF064B1B781A46064B64
:1010F0001B681344044A136000BFBD465DF8047BBF
:10110000704700BF08000020B802002080B400AF84
:10111000034B1B681846BD465DF8047B704700BF53
:10112000B802002080B584B000AF7860FFF7EEFF12
:10113000B8607B68FB60FB68B3F1FF3F05D00A4BEA
:101140001B781A46FB681344FB6000BFFFF7DEFF05
:101150000246BB68D31AFA689A42F7D800BF00BFAC
:101160001037BD4680BD00BF0800002080B584B0A8
:1011700000AF78607B68002B01D10123EDE07B6834
:1011800093F82030DBB2002B02D17868FFF742FDE4
:101190007B681B681A687B681B6842F001021A6052
:1011A000FFF7B4FFF86012E0FFF7B0FF0246FB68FC
:1011B000D31A0A2B0BD97B685B6A43F400327B6835
:1011C0005A627B68052283F820200123C5E07B68F2
:1011D0001B685B6803F00103002BE5D07B681B688C
:1011E0001A687B681B6822F002021A60FFF78EFF04
:1011F000F86012E0FFF78AFF0246FB68D31A0A2B59
:101200000BD97B685B6A43F400327B685A627B6867
:10121000052283F8202001239FE07B681B685B6820
:1012200003F00203002BE5D17B681B7E012B08D164
:101230007B681B681A687B681B6842F080021A6032
:1012400007E07B681B681A687B681B6822F08002D5
:101250001A607B685B7E012B08D17B681B681A686B
:101260007B681B6842F040021A6007E07B681B68DD
:101270001A687B681B6822F040021A607B689B7EBC
:10128000012B08D17B681B681A687B681B6842F0D9
:1012900020021A6007E07B681B681A687B681B687D
:1012A00022F020021A607B68DB7E012B08D17B686C
:1012B0001B681A687B681B6822F010021A6007E03E
:1012C0007B681B681A687B681B6842F010021A6012
:1012D0007B681B7F012B08D17B681B681A687B68C1
:1012E0001B6842F008021A6007E07B681B681A68F6
:1012F0007B681B6822F008021A607B685B7F012B09
:1013000008D17B681B681A687B681B6842F004027E
:101310001A6007E07B681B681A687B681B6822F00C
:1013200004021A607B689A687B68DB681A437B68F2
:101330001B691A437B685B6942EA03017B685B684F
:101340005A1E7B681B680A43DA617B6800225A6276
:101350007B68012283F82020002318461037BD4601
:1013600080BD000080B487B000AF786039607B68D2
:101370001B687B617B6893F82030FB74FB7C012B3E
:1013800003D0FB7C022B40F0BE80654B7B617B6908
:10139000D3F8003243F001027B69C3F800227B6975
:1013A000D3F8003223F47C527B69C3F800227B69B6
:1013B000D3F800223B685B6A1B021A437B69C3F8BF
:1013C00000223B685B6903F01F03012202FA03F36A
:1013D000FB607B69D3F81C22FB68DB431A407B6906
:1013E000C3F81C223B68DB69002B23D17B69D3F84F
:1013F0000C22FB68DB431A407B69C3F80C223B6874
:10140000DB6819043B685B689BB23A685269194310
:101410007B69483243F832103B689B6819043B688B
:101420001B689AB23B685B690A4379694833DB0001
:101430000B445A603B68DB69012B22D17B69D3F8EE
:101440000C22FB681A437B69C3F80C223B681B68BB
:1014500019043B685B689BB23A68526919437B691F
:10146000483243F832103B689B6819043B68DB68DC
:101470009AB23B685B690A4379694833DB000B44E5
:101480005A603B689B69002B09D17B69D3F8042221
:10149000FB68DB431A407B69C3F8042207E07B69E1
:1014A000D3F80422FB681A437B69C3F804223B6823
:1014B0001B69002B09D17B69D3F81422FB68DB433D
:1014C0001A407B69C3F8142207E07B69D3F8142221
:1014D000FB681A437B69C3F814223B681B6A012B23
:1014E00007D17B69D3F81C22FB681A437B69C3F8D8
:1014F0001C227B69D3F8003223F001027B69C3F818
:101500000022002306E07B685B6A43F480227B684C
:101510005A62012318461C37BD465DF8047B7047AC
:101520000064004080B584B000AF78607B6893F8B9
:101530002030DBB2012B2ED17B68022283F82020E1
:101540007B681B681A687B681B6822F001021A60BE
:10155000FFF7DCFDF86012E0FFF7D8FD0246FB68FC
:10156000D31A0A2B0BD97B685B6A43F400327B6881
:101570005A627B68052283F82020012312E07B68F1
:101580001B685B6803F00103002BE5D17B68002238
:101590005A62002306E07B685B6A43F400227B68A2
:1015A0005A62012318461037BD4680BD80B489B009
:1015B00000AFF860B9607A603B60FB6893F8203058
:1015C000FB77FB681B689B68BB61FB7F012B03D02B
:1015D000FB7F022B40F0B880BB6903F08063002BD7
:1015E0000AD1BB6903F00063002B05D1BB6903F08E
:1015F0008053002B00F0A080BB691B0E03F0030397
:101600007B617B69022B07D9FB685B6A43F40002AC
:10161000FB685A6201239EE001227B699A403B6885
:101620001A60BB689B68002B0DD1BB681B685A050C
:10163000BB68DB68F96809681A437B6918331B01CA
:101640000B441A600FE0BB685B68DA00BB689B68FC
:101650001A43BB68DB68F96809681A437B69183369
:101660001B010B441A60FB681968BB681A697B6927
:1016700018331B010B4404331A60BB681B7D012B1C
:1016800011D1FB681A687B6918331B0113440433BA
:101690001B68FA68116843F480727B6918331B0178
:1016A0000B4404331A607B6807331B781A067B6887
:1016B00006331B781B041A437B6805331B781B0217
:1016C00013437A68043212781046FA68116843EAC4
:1016D00000027B691B010B4403F5C6731A607B682B
:1016E00003331B781A067B6802331B781B041A43EA
:1016F0007B6801331B781B0213437A68127810460B
:10170000FA68116843EA00027B691B010B4403F588
:10171000C4731A60FB681A687B6918331B01134491
:101720001B68FA68116843F001027B6918331B01DA
:101730000B441A6000230EE0FB685B6A43F400125E
:10174000FB685A62012306E0FB685B6A43F480226F
:10175000FB685A62012318462437BD465DF8047BB6
:10176000704780B487B000AFF860B9607A603B60C2
:10177000FB6893F82030FB75FB7D012B03D0FB7DCC
:10178000022B40F0F380BB68002B0ED1FB681B6876
:10179000DB6803F00303002B16D1FB685B6A43F49C
:1017A0000012FB685A620123E7E0FB681B681B69B3
:1017B00003F00303002B07D1FB685B6A43F40012BC
:1017C000FB685A620123D8E0FB681A68BB681B33C8
:1017D0001B0113441B6803F004027B689A607B685A
:1017E0009B68002B0CD1FB681A68BB681B331B017C
:1017F00013441B685B0DC3F30A027B681A600BE09D
:10180000FB681A68BB681B331B0113441B68DB08A9
:1018100023F060427B685A60FB681A68BB681B3320
:101820001B0113441B6803F002027B68DA60FB684B
:101830001A68BB681B331B01134404331B6803F095
:101840000F027B681A61FB681A68BB681B331B01B7
:10185000134404331B681B0ADAB27B689A61FB6885
:101860001A68BB681B331B01134404331B681B0C31
:101870009AB27B685A61FB681A68BB681B01134403
:1018800003F5DC731B68DAB23B681A70FB681A68F0
:10189000BB681B01134403F5DC731B681A0A3B6821
:1018A0000133D2B21A70FB681A68BB681B0113447B
:1018B00003F5DC731B681A0C3B680233D2B21A7052
:1018C000FB681A68BB681B01134403F5DC731B68D3
:1018D0001A0E3B680333D2B21A70FB681A68BB68F1
:1018E0001B01134403F5DE731A683B680433D2B25C
:1018F0001A70FB681A68BB681B01134403F5DE739A
:101900001B681A0A3B680533D2B21A70FB681A6862
:10191000BB681B01134403F5DE731B681A0C3B689C
:101920000633D2B21A70FB681A68BB681B011344F5
:1019300003F5DE731B681A0E3B680733D2B21A70C8
:10194000BB68002B08D1FB681B68DA68FB681B6862
:1019500042F02002DA6007E0FB681B681A69FB6846
:101960001B6842F020021A61002306E0FB685B6AF4
:1019700043F48022FB685A62012318461C37BD4697
:101980005DF8047B704780B485B000AF7860396043
:101990007B6893F82030FB73FB7B012B02D0FB7B31
:1019A000022B09D17B681B6859697B681B683A6800
:1019B0000A435A61002306E07B685B6A43F4802295
:1019C0007B685A62012318461437BD465DF8047BD4
:1019D000704780B58AB000AF786000237B627B6877
:1019E0001B685B693B627B681B685B68FB617B68AB
:1019F0001B689B68BB617B681B68DB687B617B68DD
:101A00001B681B693B617B681B689B69FB603B6AC9
:101A100003F00103002B7CD0BB6903F00103002B12
:101A200023D07B681B6801229A60BB6903F0020324
:101A3000002B03D0786800F083F916E0BB6903F04F
:101A40000403002B04D07B6A43F400637B620CE048
:101A5000BB6903F00803002B04D07B6A43F4805376
:101A60007B6202E0786800F089F9BB6903F4807357
:101A7000002B24D07B681B684FF480729A60BB698E
:101A800003F40073002B03D0786800F063F916E0CC
:101A9000BB6903F48063002B04D07B6A43F40053DA
:101AA0007B620CE0BB6903F40063002B04D07B6A0B
:101AB00043F480437B6202E0786800F069F9BB6917
:101AC00003F48033002B24D07B681B684FF48032F2
:101AD0009A60BB6903F40033002B03D0786800F0F0
:101AE00043F916E0BB6903F48023002B04D07B6A22
:101AF00043F400437B620CE0BB6903F40023002B3A
:101B000004D07B6A43F480337B6202E0786800F0A3
:101B100049F93B6A03F00803002B0CD07B6903F002
:101B20001003002B07D07B6A43F400737B627B6851
:101B30001B681022DA603B6A03F00403002B0BD011
:101B40007B6903F00803002B06D07B681B68082222
:101B5000DA60786800F030F93B6A03F00203002B8A
:101B600009D07B681B68DB6803F00303002B02D0FD
:101B70007868FEF75BFD3B6A03F04003002B0CD056
:101B80003B6903F01003002B07D07B6A43F48063AA
:101B90007B627B681B6810221A613B6A03F020039A
:101BA000002B0BD03B6903F00803002B06D07B68A9
:101BB0001B6808221A61786800F008F93B6A03F094
:101BC0001003002B09D07B681B681B6903F003031B
:101BD000002B02D07868FEF785FD3B6A03F40033E2
:101BE000002B0BD0FB6903F01003002B06D07B68A1
:101BF0001B6810225A60786800F0F2F83B6A03F420
:101C00008033002B0BD0FB6903F00803002B06D0B8
:101C10007B681B6808225A60786800F0EBF83B6A22
:101C200003F40043002B7BD0FB6903F00403002B7B
:101C300072D03B6A03F48073002B08D0FB6803F07A
:101C40000103002B03D07B6A43F001037B623B6AF4
:101C500003F40073002B08D0FB6803F00203002B91
:101C600003D07B6A43F002037B623B6A03F4806328
:101C7000002B08D0FB6803F00403002B03D07B6A21
:101C800043F004037B623B6A03F40063002B43D000
:101C9000FB6803F07003002B3ED0FB6803F0700379
:101CA000602B2BD0602B2ED8502B22D0502B2AD833
:101CB000402B19D0402B26D8302B10D0302B22D8D7
:101CC000102B02D0202B05D01DE07B6A43F00803C7
:101CD0007B6219E07B6A43F010037B6214E07B6A4D
:101CE00043F020037B620FE07B6A43F040037B629A
:101CF0000AE07B6A43F080037B6205E07B6A43F481
:101D000080737B6200E000BF7B681B689A697B6818
:101D10001B6822F070029A617B681B6804225A607B
:101D20007B6A002B08D07B685A6A7B6A1A437B68FF
:101D30005A62786800F068F800BF2837BD4680BD59
:101D400080B483B000AF786000BF0C37BD465DF84B
:101D5000047B704780B483B000AF786000BF0C375D
:101D6000BD465DF8047B704780B483B000AF7860F7
:101D700000BF0C37BD465DF8047B704780B483B06C
:101D800000AF786000BF0C37BD465DF8047B70473C
:101D900080B483B000AF786000BF0C37BD465DF8FB
:101DA000047B704780B483B000AF786000BF0C370D
:101DB000BD465DF8047B704780B483B000AF7860A7
:101DC00000BF0C37BD465DF8047B704780B483B01C
:101DD00000AF786000BF0C37BD465DF8047B7047EC
:101DE00080B483B000AF786000BF0C37BD465DF8AB
:101DF000047B704780B483B000AF786000BF0C37BD
:101E0000BD465DF8047B704780B483B000AF786056
:101E100000BF0C37BD465DF8047B704780B485B0C9
:101E200000AF78607B6803F00703FB600C4BDB6856
:101E3000BB60BA684FF6FF031340BB60FB681A0231
:101E4000BB68134343F0BF6343F40033BB60044AF1
:101E5000BB68D36000BF1437BD465DF8047B704794
:101E600000ED00E080B400AF044BDB681B0A03F018
:101E700007031846BD465DF8047B704700ED00E09F
:101E800080B483B000AF0346FB7197F90730002B95
:101E90000BDBFB7903F01F02074997F907305B0959
:101EA000012000FA02F241F8232000BF0C37BD46A2
:101EB0005DF8047B704700BF00E100E080B483B0B0
:101EC00000AF03463960FB7197F90730002B0ADB3E
:101ED0003B68DAB20C4997F907301201D2B20B44D1
:101EE00083F800230AE03B68DAB20849FB7903F083
:101EF0000F03043B1201D2B20B441A7600BF0C3719
:101F0000BD465DF8047B704700E100E000ED00E0B5
:101F100080B489B000AFF860B9607A60FB6803F004
:101F20000703FB61FB69C3F10703042B28BF0423EC
:101F3000BB61FB690433062B02D9FB69033B00E05C
:101F400000237B614FF0FF32BB6902FA03F3DA43EF
:101F5000BB681A407B699A404FF0FF317B6901FAF8
:101F600003F3D9437B680B40134318462437BD461F
:101F70005DF8047B7047000080B582B000AF7860E8
:101F80007B68013BB3F1807F01D301230FE00A4A54
:101F90007B68013B53600F214FF0FF30FFF78EFF4E
:101FA000054B00229A60044B07221A600023184652
:101FB0000837BD4680BD00BF10E000E080B582B0AC
:101FC00000AF78607868FFF729FF00BF0837BD468B
:101FD00080BD80B586B000AF0346B9607A60FB7300
:101FE00000237B61FFF73EFF78617A68B968786902
:101FF000FFF78EFF024697F90F3011461846FFF79C
:102000005DFF00BF1837BD4680BD80B582B000AF10
:102010000346FB7197F907301846FFF731FF00BF01
:102020000837BD4680BD80B582B000AF7860786863
:10203000FFF7A2FF034618460837BD4680BD0000E3
:1020400080B489B000AF7860396000237B610023E1
:102050003B610023BB610023FB616BE10122FB6953
:1020600002FA03F37B613B681B687A6913403B61AA
:102070003A697B699A4240F05A813B685B6803F099
:102080000303012B05D03B685B6803F00303022BBD
:1020900030D17B689B68BB61FB695B00032202FA5D
:1020A00003F3DB43BA691340BB613B68DA68FB6941
:1020B0005B0002FA03F3BA691343BB617B68BA6938
:1020C0009A607B685B68BB610122FB6902FA03F3DB
:1020D000DB43BA691340BB613B685B681B0903F0D3
:1020E0000102FB6902FA03F3BA691343BB617B681F
:1020F000BA695A603B685B6803F00303032B17D08F
:102100007B68DB68BB61FB695B00032202FA03F3B7
:10211000DB43BA691340BB613B689A68FB695B00AB
:1021200002FA03F3BA691343BB617B68BA69DA60E8
:102130003B685B6803F00303022B23D1FB69DA08D9
:102140007B68083253F82230BB61FB6903F0070358
:102150009B000F2202FA03F3DB43BA691340BB6111
:102160003B681A69FB6903F007039B0002FA03F35B
:10217000BA691343BB61FB69DA087B680832B96945
:1021800043F822107B681B68BB61FB695B0003227C
:1021900002FA03F3DB43BA691340BB613B685B6837
:1021A00003F00302FB695B0002FA03F3BA6913430D
:1021B000BB617B68BA691A603B685B6803F44033B3
:1021C000002B00F0B4800023FB60604B5B6C5F4A27
:1021D00043F4804353645D4B5B6C03F48043FB60CA
:1021E000FB685B4AFB699B08023352F82330BB61F2
:1021F000FB6903F003039B000F2202FA03F3DB43A6
:10220000BA691340BB617B68524A93422BD07B680A
:10221000514A934225D07B68504A93421FD07B6835
:102220004F4A934219D07B684E4A934213D07B6841
:102230004D4A93420DD07B684C4A934207D07B684D
:102240004B4A934201D107230EE008230CE00623FA
:102250000AE0052308E0042306E0032304E0022348
:1022600002E0012300E00023FA6902F00302920079
:102270009340BA691343BB613549FB699B0802333C
:10228000BA6941F823203B4B9B68BB613B69DB4348
:10229000BA691340BB613B685B6803F48013002B91
:1022A00003D0BA693B691343BB61324ABB6993608F
:1022B000304BDB68BB613B69DB43BA691340BB61F0
:1022C0003B685B6803F40013002B03D0BA693B69D9
:1022D0001343BB61274ABB69D360264B5B68BB6174
:1022E0003B69DB43BA691340BB613B685B6803F43D
:1022F0000033002B03D0BA693B691343BB611D4A0D
:10230000BB6953601B4B1B68BB613B69DB43BA690C
:102310001340BB613B685B6803F48033002B03D040
:10232000BA693B691343BB61124ABB691360FB691D
:102330000133FB61FB690F2B7FF690AE00BF00BF3E
:102340002437BD465DF8047B704700BF003802406B
:102350000038014000000240000402400008024032
:10236000000C02400010024000140240001802401D
:10237000001C0240003C014080B483B000AF786094
:102380000B467B8013467B707B78002B03D07A88CA
:102390007B689A6103E07B881A047B689A6100BFBE
:1023A0000C37BD465DF8047B704780B485B000AF44
:1023B00078600B467B807B685B69FB607A88FB6892
:1023C00013401A04FB68D9437B880B401A437B688F
:1023D0009A6100BF1437BD465DF8047B704700006A
:1023E00080B586B000AF78607B68002B01D10123F7
:1023F00067E27B681B6803F00103002B75D0884BF4
:102400009B6803F00C03042B0CD0854B9B6803F0F6
:102410000C03082B12D1824B5B6803F48003B3F5E5
:10242000800F0BD17E4B1B6803F40033002B5BD075
:102430007B685B68002B57D1012342E27B685B68B5
:10244000B3F5803F06D1764B1B68754A43F4803361
:1024500013601DE07B685B68B3F5A02F0CD1704B57
:102460001B686F4A43F4802313606D4B1B686C4AF2
:1024700043F4803313600BE0694B1B68684A23F414
:1024800080331360664B1B68654A23F48023136016
:102490007B685B68002B13D0FEF738FE386108E0DC
:1024A000FEF734FE02463B69D31A642B01D903239D
:1024B00007E25B4B1B6803F40033002BF0D014E001
:1024C000FEF724FE386108E0FEF720FE02463B6975
:1024D000D31A642B01D90323F3E1514B1B6803F496
:1024E0000033002BF0D100E000BF7B681B6803F0D5
:1024F0000203002B63D04A4B9B6803F00C03002BB4
:102500000BD0474B9B6803F00C03082B1CD1444BAA
:102510005B6803F48003002B16D1414B1B6803F06A
:102520000203002B05D07B68DB68012B01D001235F
:10253000C7E13B4B1B6823F0F8027B681B69DB009B
:10254000374913430B603AE07B68DB68002B20D0EF
:10255000344B01221A60FEF7D9FD386108E0FEF71E
:10256000D5FD02463B69D31A022B01D90323A8E10A
:102570002B4B1B6803F00203002BF0D0284B1B6889
:1025800023F0F8027B681B69DB00254913430B60CD
:1025900015E0244B00221A60FEF7B8FD386108E010
:1025A000FEF7B4FD02463B69D31A022B01D903237F
:1025B00087E11B4B1B6803F00203002BF0D17B6803
:1025C0001B6803F00803002B36D07B685B69002B87
:1025D00016D0154B01221A60FEF798FD386108E00D
:1025E000FEF794FD02463B69D31A022B01D903235F
:1025F00067E10B4B5B6F03F00203002BF0D01BE095
:10260000094B00221A60FEF781FD38610EE0FEF7EB
:102610007DFD02463B69D31A022B07D9032350E103
:102620000038024000004742800E4742884B5B6FF3
:1026300003F00203002BEAD17B681B6803F004035C
:10264000002B00F097800023FB75814B1B6C03F07F
:102650008053002B0FD10023BB607D4B1B6C7C4A49
:1026600043F0805313647A4B1B6C03F08053BB60C0
:10267000BB680123FB75774B1B6803F48073002B49
:1026800018D1744B1B68734A43F480731360FEF7D0
:102690003DFD386108E0FEF739FD02463B69D31A7B
:1026A000022B01D903230CE16A4B1B6803F48073EE
:1026B000002BF0D07B689B68012B06D1644B1B6F0D
:1026C000634A43F0010313671CE07B689B68052B9A
:1026D0000CD15F4B1B6F5E4A43F0040313675C4BE6
:1026E0001B6F5B4A43F0010313670BE0584B1B6FF2
:1026F000574A23F001031367554B1B6F544A23F0CD
:10270000040313677B689B68002B15D0FEF7FEFC63
:1027100038610AE0FEF7FAFC02463B69D31A41F23F
:102720008832934201D90323CBE0494B1B6F03F05E
:102730000203002BEED014E0FEF7E8FC38610AE05B
:10274000FEF7E4FC02463B69D31A41F28832934219
:1027500001D90323B5E03E4B1B6F03F00203002BAE
:10276000EED1FB7D012B05D1394B1B6C384A23F090
:10277000805313647B689B69002B00F0A180344B6D
:102780009B6803F00C03082B5CD07B689B69022BD1
:1027900041D1314B00221A60FEF7B8FC386108E0E5
:1027A000FEF7B4FC02463B69D31A022B01D903237E
:1027B00087E0274B1B6803F00073002BF0D17B6888
:1027C000DA697B681B6A1A437B685B6A9B011A4360
:1027D0007B689B6A5B08013B1B041A437B68DB6ACE
:1027E0001B061B4913434B601B4B01221A60FEF76B
:1027F0008DFC386108E0FEF789FC02463B69D31A7C
:10280000022B01D903235CE0114B1B6803F000731A
:10281000002BF0D054E0104B00221A60FEF776FC3B
:10282000386108E0FEF772FC02463B69D31A022BBE
:1028300001D9032345E0064B1B6803F00073002B0E
:10284000F0D13DE07B689B69012B07D1012338E083
:102850000038024000700040600047421B4B5B683C
:10286000FB607B689B69012B28D0FB6803F4800226
:102870007B68DB699A4221D1FB6803F03F027B68E9
:102880001B6A9A421AD1FA6847F6C07313407A68F5
:10289000526A9201934211D1FB6803F440327B6883
:1028A0009B6A5B08013B1B049A4207D1FB6803F05B
:1028B00070627B68DB6A1B069A4201D0012300E04C
:1028C000002318461837BD4680BD00BF00380240BF
:1028D00080B584B000AF786039607B68002B01D18F
:1028E0000123CCE0684B1B6803F007033A689A4267
:1028F0000CD9654B3A68D2B21A70634B1B6803F06F
:1029000007033A689A4201D00123B8E07B681B684C
:1029100003F00203002B20D07B681B6803F0040344
:10292000002B05D0594B9B68584A43F4E053936001
:102930007B681B6803F00803002B05D0534B9B6892
:10294000524A43F460439360504B9B6823F0F0027B
:102950007B689B684D4913438B607B681B6803F061
:102960000103002B44D07B685B68012B07D1474BE8
:102970001B6803F40033002B19D101237FE07B682F
:102980005B68022B03D07B685B68032B07D13F4B4E
:102990001B6803F00073002B09D101236FE03B4B50
:1029A0001B6803F00203002B01D1012367E0374BC2
:1029B0009B6823F003027B685B68344913438B6098
:1029C000FEF7A4FBF8600AE0FEF7A0FB0246FB68F6
:1029D000D31A41F28832934201D903234FE02B4BA3
:1029E0009B6803F00C027B685B689B009A42EBD10A
:1029F000254B1B6803F007033A689A420CD2224B1E
:102A00003A68D2B21A70204B1B6803F007033A6889
:102A10009A4201D0012332E07B681B6803F0040373
:102A2000002B08D0194B9B6823F4E0527B68DB68CD
:102A3000164913438B607B681B6803F00803002B67
:102A400009D0124B9B6823F460427B681B69DB0052
:102A50000E4913438B6000F021F802460B4B9B6834
:102A60001B0903F00F030A49CB5C22FA03F3094A5E
:102A70001360094B1B681846FEF704FB0023184639
:102A80001037BD4680BD00BF003C02400038024008
:102A90001445000800000020040000202DE9B04F7C
:102AA00094B000AF00237B640023FB6400233B64ED
:102AB0000023BB64794B9B6803F00C03082B0DD0FB
:102AC000082B00F2E180002B02D0042B03D0DBE0C6
:102AD000734BBB64DBE0734BBB64D8E06F4B5B684C
:102AE00003F03F037B646D4B5B6803F48003002BB2
:102AF00063D06A4B5B689B090022BB63FA63BB6BC4
:102B0000C3F308033B6300237B63D7E90C452246EC
:102B10002B464FF000004FF00001590141EAD2610D
:102B2000500102460B462146511A3961294663EB92
:102B300001037B614FF000024FF00003D7E904ABC3
:102B400059468B01514643EA916351468A015146E9
:102B5000B2EB0108594663EB01094FF000024FF058
:102B600000034FEAC90343EA58734FEAC80290468C
:102B70009946234618EB0303BB602B4649EB03033E
:102B8000FB604FF000024FF00003D7E902452946F1
:102B90004B02214643EAD15321464A0210461946C8
:102BA0007B6C0022BB62FA62D7E90A23FDF760FB67
:102BB00002460B461346FB6458E0384B5B689B09A2
:102BC000002218461146C0F308033B6200237B62D3
:102BD000D7E9088942464B464FF000004FF000010C
:102BE000590141EAD261500102460B464146B2EB1F
:102BF000010A494663EB010B4FF000024FF000035E
:102C00004FEA8B1343EA9A634FEA8A12B2EB0A0443
:102C100063EB0B054FF000024FF00003EB0043EABB
:102C20005473E20014461D464346E3183B604B468E
:102C300045EB03037B604FF000024FF00003D7E940
:102C4000004529468B02214643EA915321468A02D8
:102C5000104619467B6C0022BB61FA61D7E9062356
:102C6000FDF706FB02460B461346FB640B4B5B6805
:102C70001B0C03F0030301335B003B64FA6C3B6CF9
:102C8000B2FBF3F3BB6402E0054BBB6400BFBB6C5B
:102C900018465037BD46BDE8B08F00BF003802402F
:102CA0000024F40000127A0080B400AF034B1B68CC
:102CB0001846BD465DF8047B704700BF0000002049
:102CC00080B500AFFFF7F0FF0246054B9B689B0AFB
:102CD00003F007030349CB5C22FA03F3184680BDD7
:102CE000003802402445000880B500AFFFF7DCFF44
:102CF0000246054B9B685B0B03F007030349CB5C63
:102D000022FA03F3184680BD00380240244500082B
:102D100080B582B000AF78607B68002B01D10123C1
:102D20003FE07B6893F83D30DBB2002B06D17B6837
:102D3000002283F83C207868FEF71CF87B68242288
:102D400083F83D207B681B68DA687B681B6822F487
:102D50000052DA60786800F029F97B681B681A690C
:102D60007B681B6822F490421A617B681B685A6971
:102D70007B681B6822F02A025A617B681B68DA684C
:102D80007B681B6842F40052DA607B6800221A6498
:102D90007B68202283F83D207B68202283F83E2038
:102DA000002318460837BD4680BD80B58AB002AF03
:102DB000F860B9603B601346FB8000237B61FB68D1
:102DC00093F83D30DBB2202B7CD1BB68002B02D0C6
:102DD000FB88002B01D1012375E0FB6893F83C30A0
:102DE000012B01D102236EE0FB68012283F83C2015
:102DF000FB6800221A64FB68212283F83D20FEF75D
:102E000085F97861FB68FA889A84FB68FA88DA8425
:102E1000FB689B68B3F5805F08D1FB681B69002BDA
:102E200004D10023FB61BB68BB6103E0BB68FB61AD
:102E30000023BB61FB68002283F83C202AE03B684A
:102E400000937B6900228021F86800F040F8034677
:102E5000002B01D0032336E0FB69002B0BD1BB69AB
:102E60001B881A46FB681B68C2F308025A60BB69DC
:102E70000233BB6107E0FB691A78FB681B685A6084
:102E8000FB690133FB61FB68DB8C9BB2013B9AB2AF
:102E9000FB68DA84FB68DB8C9BB2002BCFD13B68EC
:102EA00000937B6900224021F86800F010F8034687
:102EB000002B01D0032306E0FB68202283F83D208D
:102EC000002300E0022318462037BD4680BD80B5B0
:102ED00090B000AFF860B9603B601346FB7150E002
:102EE000BB6CB3F1FF3F4CD0BB6C002B07D0FEF79F
:102EF0000DF902463B68D31ABA6C9A4241D2FB687C
:102F00001B680C33BB62BB6A53E8003F7B627B6A81
:102F100023F4D073FB63FB681B680C33FA6B7A6392
:102F20003B63396B7A6B41E80023FB62FB6A002B41
:102F3000E5D1FB681B6814337B617B6953E8003F74
:102F40003B613B6923F00103BB63FB681B681433DF
:102F5000BA6B3A62FB61F9693A6A41E80023BB61E6
:102F6000BB69002BE5D1FB68202283F83D20FB687C
:102F7000202283F83E20FB68002283F83C200323B4
:102F80000FE0FB681B681A68BB681340BA689A4276
:102F90000CBF01230023DBB21A46FB799A429FD073
:102FA000002318464037BD4680BD00002DE9B04FD4
:102FB000C0B000AFC7F8F400D7F8F4301B681B6945
:102FC00023F44050D7F8F430D968D7F8F4301A68B1
:102FD00040EA01031361D7F8F4309A68D7F8F43067
:102FE0001B691A43D7F8F4305B691A43D7F8F430F9
:102FF000DB691343C7F8F830D7F8F4301B68DB6897
:1030000023F4164121F00C01D7F8F4301A68D7F8F0
:10301000F8300B43D360D7F8F4301B685B6923F4B6
:103020004070D7F8F4309969D7F8F4301A6840EA5C
:1030300001035361D7F8F4301A688F4B9A4205D0D8
:10304000D7F8F4301A688D4B9A4204D1FFF74CFE42
:10305000C7F8FC0003E0FFF733FEC7F8FC00D7F821
:10306000F430DB69B3F5004F40F00C81D7F8FC3049
:103070000022C7F8E830C7F8EC20D7E93A452246E5
:103080002B469118B9655B41FB65D7E916232146AC
:1030900012EB0108294643EB01094FF000024FF003
:1030A00000034FEAC90343EA58734FEAC802904647
:1030B0009946234618EB0303C7F8E0302B4649EB4B
:1030C0000303C7F8E430D7F8F4305B680022C7F890
:1030D000D830C7F8DC20D7E936120B46DB183B6541
:1030E000134642EB03037B65D7E91423D7E9380184
:1030F000FDF7BEF802460B46614BA3FB02235B09BA
:103100001C01D7F8FC300022C7F8D030C7F8D42013
:10311000D7E9348942464B469118B9645B41FB6458
:10312000D7E91223414612EB010A494643EB010B52
:103130004FF000024FF000034FEACB0343EA5A730B
:103140004FEACA0292469B4643461AEB0303C7F86E
:10315000C8304B464BEB0303C7F8CC30D7F8F430FC
:103160005B680022C7F8C030C7F8C420D7E9301226
:103170000B46DB183B64134642EB03037B64D7E941
:103180001023D7E93201FDF773F802460B461146CA
:103190003B4BA3FB01235B09642202FB03F3CB1A25
:1031A000DB0003F13202364BA3FB02235B095B0019
:1031B00003F4F8731C44D7F8FC300022C7F8B83089
:1031C000C7F8BC20D7E92E8942464B469118B9630F
:1031D0005B41FB63D7E90E234146511839634946E9
:1031E0004B417B634FF000024FF00003D7E90CAB7B
:1031F0005946CB00514643EA51735146CA00104626
:103200001946034642469B18C7F8B0304B460A465B
:1032100042EB0303C7F8B430D7F8F4305B68002200
:10322000C7F8A830C7F8AC20D7E92A120B46DB183C
:10323000BB62134642EB0303FB62D7E90A23D7E9DB
:103240002C01FDF715F802460B460D4BA3FB0213AC
:103250005B09642101FB03F3D31ADB003233084A14
:10326000A2FB03235B0903F00702D7F8F4301B68C5
:1032700022449A6005E100BF0010014000140140A3
:103280001F85EB51D7F8FC300022C7F8A030C7F8F3
:10329000A420D7E9288942464B46911839625B4100
:1032A0007B62D7E9082341465418494643EB0105A0
:1032B0004FF000024FF00003EB0043EA5473E200CA
:1032C00014461D464346E318C7F898304B4645EB75
:1032D0000303C7F89C30D7F8F4305B680022C7F8C6
:1032E0009030C7F894204FF000024FF00003D7E968
:1032F000244529468B00214643EA917321468A00E2
:10330000D7E92601FCF7B4FF02460B46604BA3FB4E
:1033100002235B091C01D7F8FC300022C7F8883073
:10332000C7F88C20D7E9228942464B469118B961EB
:103330005B41FB61D7E90623414651183961494693
:103340004B417B614FF000024FF00003D7E904AB23
:103350005946CB00514643EA51735146CA001046C4
:103360001946034642469B18C7F880304B460A462A
:1033700042EB0303C7F88430D7F8F4305B680022CF
:10338000BB67FA674FF000024FF00003D7E91E89D0
:1033900049468B00414643EA917341468A00D7E98A
:1033A0002001FCF765FF02460B46394BA3FB0213D5
:1033B0005B09642101FB03F3D31A1B013233344A46
:1033C000A2FB03235B0903F0F0031C44D7F8FC3095
:1033D00000223B677A67D7E91C8942464B46911821
:1033E000B9605B41FB60D7E902234146511839605F
:1033F00049464B417B604FF000024FF00003D7E994
:1034000000AB5946CB00514643EA51735146CA00BE
:1034100010461946034642469B18BB664B460A4671
:1034200042EB0303FB66D7F8F4305B6800223B668F
:103430007A664FF000024FF00003D7E91889494639
:103440008B00414643EA917341468A00D7E91A014D
:10345000FCF70EFF02460B460D4BA3FB02135B0964
:10346000642101FB03F3D31A1B013233084AA2FB88
:1034700003235B0903F00F02D7F8F4301B682244E2
:103480009A6000BF07F58077BD46BDE8B08F00BFEA
:103490001F85EB51014B1868704700BF0C000020DE
:1034A00070B50D4D0D4C641BA4100026A64209D129
:1034B0000B4D0C4C01F00CF8641BA4100026A64226
:1034C00005D170BD55F8043B98470136EEE755F835
:1034D000043B98470136F2E7CC450008CC4500088C
:1034E000CC450008D045000802440346934200D171
:1034F000704703F8011BF9E70FB40A4B13B51C68BA
:1035000024B1A36913B9204600F07CF805AB049AF6
:10351000A1680193204600F0D3F902B0BDE8104045
:1035200004B070470C000020094B13B51C6801461D
:1035300034B1A36923B90190204600F063F80199E2
:10354000A268204602B0BDE8104000F07DBC00BF7C
:103550000C000020002310B50446C0E90033C0E988
:103560000433836081814366C281836119460822E6
:103570005C30FFF7B9FF054B6362054BA362054B57
:10358000E362054B2462236310BD00BFF93E0008CF
:103590001B3F0008533F0008773F0008014900F037
:1035A000AFB800BF5142000870B568224D1E5543A8
:1035B0000E4605F1740100F0E5F8044640B1002123
:1035C000C0E900160C30A06005F16802FFF78CFF1F
:1035D000204670BD014800F0B3B800BFBD02002016
:1035E000014800F0AEB800BFBD020020014800F065
:1035F000A7B800BFBE020020014800F0A2B800BF7B
:10360000BE02002010B50446FFF7F0FFA3691BB10E
:10361000BDE81040FFF7F0BFC4E912332365134B38
:10362000134A1B68A262A34204BF0123A361204680
:1036300000F020F86060204600F01CF8A0602046F2
:1036400000F018F80022E06004216068FFF782FFB4
:10365000A06801220921FFF77DFFE0680222122104
:10366000FFF778FF0123A361D2E700BF2C450008D4
:103670009D350008F8B50746FFF7ACFF1E4B1E68E6
:10368000B36913B93046FFF7BDFF4836D6E90134B8
:10369000013B03D533680BB33668F7E7B4F90C5038
:1036A000D5B9164BE36004F15800656600F047F8A1
:1036B000FFF796FFC4E90155C4E904552560A561EB
:1036C0000822294604F15C00FFF70EFFC4E90D55FE
:1036D000C4E912552046F8BD6834D9E704213846BC
:1036E000FFF762FF044630600028D5D1FFF778FF6E
:1036F0000C233B60EEE700BF2C4500080100FFFFF4
:103700002DE9F8430646884600F148040027D4E92D
:103710000195B9F1010905D52468002CF7D1384687
:10372000BDE8F883AB89012B07D9B5F90E30013319
:1037300003D029463046C04707436835E9E770475C
:103740007047704770B50E4E0C463168054611B98A
:1037500000F0C2FB30602146284600F0BDFB431C50
:103760000AD0C41C24F00304A04207D0211A284622
:1037700000F0B2FB013001D14FF0FF34204670BDA4
:10378000C40200202DE9F041CD1C25F003050835C9
:103790000C2D38BF0C25002D074601DBA94205D9A9
:1037A0000C233B6000263046BDE8F0812E4E00F031
:1037B00003FE33681C4634BB29463846FFF7C2FF78
:1037C000431C04464DD134682646002E40D1236860
:1037D0003146384604EB030800F07EFB80453AD1C1
:1037E000216803356D1A25F0030508350C2D38BF07
:1037F0000C2529463846FFF7A5FF01302BD023685A
:103800002B4423600EE02268521B1ED40B2A16D9CB
:103810006119A342256018BF5960636808BF316011
:1038200062514B60384604F10B0600F0CBFD26F0E8
:103830000706231DF21AB6D09B1BA350B3E762689C
:10384000A3420CBF32605A60ECE723466468B2E7DB
:1038500034467668B9E70C233B60384600F0B2FD89
:10386000A1E72560DEE700BFC00200209368013BAE
:10387000002B10B4936008DA9469A34201DB0A2993
:1038800003D15DF8044B00F07BBB1368581C10603B
:10389000197008465DF8044B7047F8B506460F46A8
:1038A0001446D518AC4201D1002007E014F8011BE2
:1038B0003A463046FFF7DAFF431CF3D1F8BD00006B
:1038C0002DE9F04F0D469DB014469846064618B1B6
:1038D00083690BB9FFF796FE894B9D421BD1756832
:1038E0006B6ED90705D4AB899A0502D4A86DFFF792
:1038F00027FFAB891B0701D52B69EBB92946304659
:1039000000F0A2FBC0B16B6EDC070ED54FF0FF30AC
:103910001DB0BDE8F08F7B4B9D4201D1B568DFE75C
:10392000794B9D4208BFF568DAE7AB899805EDD47D
:10393000A86DFFF706FFE9E70023099320238DF820
:103940002930CDF80C803023DFF8C0818DF82A3083
:103950004FF0010923469A4613F8012B0AB1252A94
:10396000F9D1BAEB040B0BD05B4622462946304610
:10397000FFF793FF013000F0AA80099A5A44099298
:103980009AF80030002B00F0A28000234FF0FF32A5
:10399000CDE905230AF1010A049307938DF853300A
:1039A0001A935446052214F8011B5848FCF710FCE2
:1039B000049AD8B9D10644BF20238DF85330130799
:1039C00044BF2B238DF853309AF800302A2B15D0A2
:1039D000079A544600204FF00A0C214611F8013B8B
:1039E000303B092B4ED9B0B1079214E0A0EB08038D
:1039F00009FA03F313430493A246D2E7039B191D6C
:103A00001B680391002BBBBF5B4242F0020207938D
:103A10000793B8BF049223782E2B0CD163782A2BFE
:103A200035D1039B1A1D1B680392002BB8BF4FF0C2
:103A3000FF3302340593DFF8E4A0217803225046D7
:103A4000FCF7C6FB40B14023A0EB0A0003FA00F0EC
:103A5000049B03430134049314F8011B2C488DF894
:103A600028100622FCF7B4FB00283FD0294B1BBBD3
:103A7000039B073323F0070308330393099B3B445D
:103A8000099367E70CFB02320C460120A5E70023EF
:103A90000134059319464FF00A0C204610F8012B0B
:103AA000303A092A03D9002BC5D00591C3E70CFB96
:103AB000012104460123F0E703AB00932A46164B8D
:103AC00004A93046AFF300800746781CD6D16B6E50
:103AD000D90705D4AB899A0502D4A86DFFF731FE4A
:103AE000AB895B063FF512AF099811E703AB009372
:103AF0002A46094B04A9304600F080F8E4E700BFED
:103B00005045000870450008304500089045000801
:103B10009A450008000000009B3800089645000800
:103B20002DE9F047164699468A680B69DDF8208032
:103B30009342B8BF1346336091F8432007460C46C2
:103B40000AB1013333602368990642BF33680233F8
:103B50003360256815F0060506D104F1190AE368FB
:103B600032689B1AAB4226DC94F84320131E22686D
:103B700018BF012392062BD404F14302494638466C
:103B8000C04701301ED02368E568326803F00603A1
:103B9000042B08BFAD1AA36822690CBF25EAE5759E
:103BA00000259342C4BF9B1AED1800261A34B54273
:103BB0001AD1002008E00123524649463846C04742
:103BC000013003D14FF0FF30BDE8F0870135C6E783
:103BD000E1185A1C302081F84300224494F8451023
:103BE00082F843100233C7E701232246494638468C
:103BF000C0470130E6D00136D9E700002DE9FF4784
:103C00000F7E0C9D782F914680460C469A4601F116
:103C1000430207D8622F0AD8002F00F0D880582F0F
:103C200000F0A38004F1420584F842703AE0A7F165
:103C30006303152BF6D801A151F823F0953C000839
:103C4000A93C0008253C0008253C0008253C00084C
:103C5000253C0008A93C0008253C0008253C00083C
:103C6000253C0008253C0008B53D0008D93C00086B
:103C7000973D0008253C0008253C0008D73D00087A
:103C8000253C0008D93C0008253C0008253C0008DC
:103C90009F3D00082B681A1D1B682A6004F142052D
:103CA00084F842300123A3E020682968060601F168
:103CB00004030AD50E682B60002E03DA2D2376420A
:103CC00084F843305E480A2319E00E682B6010F038
:103CD000400F18BF36B2EFE72B682068191D296026
:103CE000010601D51E6802E04606FBD51E88544831
:103CF0006F2F0CBF08230A23002184F84310656846
:103D0000A560002DA2BF216821F0040121600EB939
:103D1000002D4DD01546B6FBF3F103FB1167C75DCF
:103D200005F8017D3746BB420E46F4D9082B0BD16E
:103D30002368DE0708D5236961689942DEBF302316
:103D400005F8013C05F1FF35521B2261CDF800A0BA
:103D50004B4603AA21464046FFF7E2FE01304CD114
:103D60004FF0FF3004B0BDE8F087354881F845706A
:103D70002968236851F8046B29601D0614D5DF07F4
:103D800044BF43F0200323601EB9236823F02003BF
:103D900023601023B0E7236843F0200323607823D7
:103DA000284884F84530E3E7590648BFB6B2E6E74D
:103DB0001546BBE72B6826686169181D2860350623
:103DC0001B6801D5196002E07006FBD5198000233D
:103DD00023611546BAE72B681A1D2A601D686268C0
:103DE00000212846FCF7F4F908B1401B60606368C5
:103DF0002361002384F84330A8E723692A46494613
:103E00004046D0470130ABD023689B0713D4E0680D
:103E1000039B9842B8BF1846A4E70123324649469F
:103E20004046D04701309BD00135E36803995B1AC7
:103E3000AB42F2DCEBE7002504F11906F5E700BF21
:103E4000A1450008B245000870B50D461446064667
:103E500018B183690BB9FFF7D5FB1C4B9C4224D1E9
:103E60007468636ED80705D4A389990502D4A06D40
:103E7000FFF766FCA368013B002BA36005DAA2698B
:103E800093421CDBEBB20A2B19D023685A1C226028
:103E90001D70EDB2636EDA0705D4A3899B0502D4C9
:103EA000A06DFFF74EFC284670BD094B9C4201D126
:103EB000B468D6E7074B9C4208BFF468D1E72946AF
:103EC0002246304600F05CF80546E3E7504500081E
:103ED000704500083045000838B5064D00230446FB
:103EE00008462B60FDF73AF8431C02D12B6803B15A
:103EF000236038BDC802002010B50C46B1F90E1081
:103F000000F0B2FA0028ABBF636DA3891B1823F43D
:103F10008053ACBF6365A38110BD2DE9F0411F46FE
:103F20008B89DB0505460C46164605D5B1F90E1002
:103F30000223002200F0C8F9A389B4F90E1023F47B
:103F40008053A38132463B462846BDE8F04100F04D
:103F500069B810B50C46B1F90E1000F0B5F9431C64
:103F6000A38915BF606523F4805343F48053A38174
:103F700018BFA38110BDB1F90E1000F0D3B8000036
:103F8000F8B50E461446054618B183690BB9FFF71C
:103F900039FB214B9C422BD16C68A369A360A38998
:103FA0001A072FD523696BB323692068C01A636988
:103FB000F6B28342374604DC2146284600F048F931
:103FC00030BBA368013BA36023685A1C22601E70AB
:103FD00063690130834204D0A389DB0706D50A2E2A
:103FE00004D12146284600F033F988B93846F8BD97
:103FF0000A4B9C4201D1AC68CFE7094B9C4208BFF9
:10400000EC68CAE72146284600F01EF80028CBD00D
:104010004FF0FF37EAE700BF504500087045000841
:104020003045000838B5074D0446084611460022C1
:104030002A601A46FCF741FF431C02D12B6803B1EA
:10404000236038BDC8020020324B70B51D6806469B
:104050000C4625B1AB6913B92846FFF7D3FA2E4BAE
:104060009C420FD16C68A389B4F90C2019072CD499
:10407000DD0611D40923336042F04003A3814FF0E1
:10408000FF303EE0254B9C4201D1AC68EBE7244B6E
:104090009C4208BFEC68E6E7580712D5616B41B156
:1040A00004F14403994202D0304600F091F9002314
:1040B0006363A38923F02403A3810023636023693E
:1040C0002360A38943F00803A38123694BB9A38923
:1040D00003F42073B3F5007F03D02146304600F08F
:1040E0002BF9A089B4F90C2010F001030AD00023A9
:1040F000A36063695B42A361236943B910F0800048
:10410000BAD170BD810758BF6369A360F4E700208E
:10411000F7E700BF0C00002050450008704500087C
:104120003045000838B5064D0023044608462B608C
:10413000FCF7DFFE431C02D12B6803B1236038BDBE
:10414000C80200208A892DE9F041054610070C4677
:1041500058D44B68002B05DC0B6C002B02DC0020D4
:10416000BDE8F081E66A002EF9D0002312F48052F7
:104170002F682B6032D0606DA3895A0705D563681C
:10418000C01A636B0BB1236CC01A00230246E66AA7
:10419000216A2846B047431CA38906D129681D29F6
:1041A0002CD82A4ACA40D60728D500226260D904F2
:1041B0002269226004D5421C01D12B6803B96065D5
:1041C000616B2F600029CAD004F14403994202D0E8
:1041D000284600F0FDF800206063C1E7216A012352
:1041E0002846B047411CC7D12B68002BC4D01D2BDB
:1041F00001D0162B01D12F60B1E7A38943F0400312
:10420000A381ADE70F69002FA9D093070E6808BFFF
:104210004B690F6018BF0023A6EB07088B60B8F14D
:10422000000F9CDD216AA66A43463A462846B047FD
:10423000002806DCA38943F04003A3814FF0FF3040
:104240008EE70744A8EB0008E9E700BF0100402023
:1042500038B50B6905460C4613B90025284638BD0C
:1042600018B183690BB9FFF7CDF9144B9C421BD1F0
:104270006C68B4F90C30002BEFD0626ED00704D418
:10428000990502D4A06DFFF75BFA28462146FFF797
:1042900059FF636EDA070546E0D4A3899B05DDD498
:1042A000A06DFFF74EFAD9E7054B9C4201D1AC68EF
:1042B000DFE7044B9C4208BFEC68DAE75045000892
:1042C000704500083045000838B5074D04460846DB
:1042D000114600222A601A46FCF732FE431C02D126
:1042E0002B6803B1236038BDC802002070B50E46AC
:1042F000B1F90E10002996B014461D4608DAB6F939
:104300000C3000222A601A0610D44FF480630EE0AD
:104310006A4600F0BBF80028F1DB019A02F4704213
:10432000A2F500535A425A412A60EEE7402300208A
:10433000236016B070BD00008B8973B59D070646DB
:104340000C4607D504F14703236023610123636111
:1043500002B070BD01AB6A46FFF7C8FF0099054681
:104360003046FFF70FFA48B9B4F90C309A05EFD48C
:1043700023F0030343F00203A381E3E70D4BB36291
:10438000A389206043F08003A381009B6361019BAC
:1043900020615BB1B4F90E10304600F089F828B105
:1043A000A38923F0030343F00103A381A0890543FC
:1043B000A581CDE79D3500080148FFF7C1B900BFD1
:1043C000BC0200200148FFF7BCB900BFBC020020BE
:1043D00037B5002944D051F8043C0190002BA1F1DD
:1043E0000404B8BFE418FFF7E7FF1E4A01981368FA
:1043F00033B96360146003B0BDE83040FFF7E2BF3B
:10440000A34208D9256861198B4201BF19685B680E
:1044100049192160EDE71A465B680BB1A342FAD94E
:1044200011685518A5420BD1246821445418A342A1
:104430001160E0D11C685B68536021441160DAE7C9
:1044400002D90C230360D6E7256861198B4204BFAB
:1044500019685B68636004BF491921605460CAE74A
:1044600003B030BDC002002038B5074D04460846F1
:10447000114600222A601A46FCF702FD431C02D1B5
:104480002B6803B1236038BDC802002038B5074D42
:1044900000230446084611462B60FCF736FD431CFA
:1044A00002D12B6803B1236038BD00BFC8020020D1
:1044B00038B5064D0023044608462B60FCF735FD51
:1044C000431C02D12B6803B1236038BDC802002011
:1044D000F8B500BFF8BC08BC9E467047F8B500BFF1
:0844E000F8BC08BC9E467047C1
:1044E8004E6F646520312067657420646174613A99
:1044F80020000000255820004E6F64652032206798
:10450800657420646174613A2000000000000000B6
:10451800000000000102030406070809000000006B
:104528000102030410000020000000000000000049
:104538000000000000000000000000000000000073
:104548000000000000000000000000000000000063
:104558000000000000000000000000000000000053
:104568000000000000000000000000000000000043
:104578000000000000000000000000000000000033
:104588000000000000000000232D302B2000686C84
:104598004C0065666745464700303132333435365E
:1045A8003738394142434445460030313233343597
:0C45B800363738396162636465660000C4
:0845C400DCBCFF7F01000000D8
:0445CC00B50100082D
:0445D000910100084D
:1045D4000024F4001000000001000000100000207E
:1045E40000000000504500087045000830450008F0
:1045F40000000000000000000000000000000000B7
:1046040000000000000000000000000000000000A6
:104614000000000000000000000000000000000096
:104624000000000000000000000000000000000086
:104634000000000000000000000000000000000076
:0400000508000FEDF3
:00000001FF
