:020000040800F2
:10000000000002209D0A0008250A00082B0A0008AB
:10001000310A0008370A00083D0A00080000000005
:10002000000000000000000000000000430A00087B
:10003000510A0008000000005F0A00086D0A00086D
:10004000ED0A0008ED0A0008ED0A0008ED0A0008B4
:10005000ED0A0008ED0A0008ED0A0008ED0A0008A4
:10006000ED0A0008ED0A0008ED0A0008ED0A000894
:10007000ED0A0008ED0A0008ED0A0008ED0A000884
:10008000ED0A0008ED0A0008ED0A0008ED0A000874
:10009000ED0A0008ED0A0008ED0A0008ED0A000864
:1000A000ED0A0008ED0A0008ED0A0008ED0A000854
:1000B000ED0A0008ED0A0008ED0A0008ED0A000844
:1000C000ED0A0008ED0A0008ED0A0008ED0A000834
:1000D000ED0A0008ED0A0008ED0A0008ED0A000824
:1000E000ED0A0008ED0A0008ED0A0008ED0A000814
:1000F000ED0A0008ED0A0008ED0A0008ED0A000804
:10010000ED0A0008ED0A0008ED0A0008ED0A0008F3
:10011000ED0A0008ED0A0008ED0A0008ED0A0008E3
:10012000ED0A0008ED0A0008ED0A0008ED0A0008D3
:10013000ED0A00080000000000000000ED0A0008C1
:10014000ED0A0008ED0A0008ED0A0008ED0A0008B3
:10015000ED0A0008ED0A0008ED0A0008ED0A0008A3
:10016000ED0A0008ED0A0008ED0A0008ED0A000893
:10017000ED0A0008ED0A0008000000000000000081
:08018000ED0A0008ED0A000879
:1001880010B5054C237833B9044B13B10448AFF3C9
:1001980000800123237010BD0C0000200000000027
:1001A8000C21000808B5034B1BB103490348AFF302
:1001B800008008BD00000000100000200C2100088D
:1001C80053B94AB9002908BF00281CBF4FF0FF31B6
:1001D8004FF0FF3000F074B9ADF1080C6DE904CEB2
:1001E80000F006F8DDF804E0DDE9022304B070470A
:1001F8002DE9F047089D04468E46002B4DD18A42D2
:10020800944669D9B2FA82F252B101FA02F3C2F104
:10021800200120FA01F10CFA02FC41EA030E944095
:100228004FEA1C48210CBEFBF8F61FFA8CF708FBB6
:1002380016E341EA034306FB07F199420AD91CEB8E
:10024800030306F1FF3080F01F81994240F21C81C0
:10025800023E63445B1AA4B2B3FBF8F008FB103308
:1002680044EA034400FB07F7A7420AD91CEB04043D
:1002780000F1FF3380F00A81A74240F2078164440D
:10028800023840EA0640E41B00261DB1D440002392
:10029800C5E900433146BDE8F0878B4209D9002DF6
:1002A80000F0EF800026C5E9000130463146BDE880
:1002B800F087B3FA83F6002E4AD18B4202D38242EA
:1002C80000F2F980841A61EB030301209E46002D99
:1002D800E0D0C5E9004EDDE702B9FFDEB2FA82F2EE
:1002E800002A40F09280A1EB0C014FEA1C471FFA4C
:1002F8008CFE0126200CB1FBF7F307FB131140EA33
:1003080001410EFB03F0884208D91CEB010103F1FF
:10031800FF3802D2884200F2CB804346091AA4B2C1
:10032800B1FBF7F007FB101144EA01440EFB00FE95
:10033800A64508D91CEB040400F1FF3102D2A645FA
:1003480000F2BB800846A4EB0E0440EA03409CE799
:10035800C6F12007B34022FA07FC4CEA030C20FA46
:1003680007F401FA06F31C43F9404FEA1C4900FA66
:1003780006F3B1FBF9F8200C1FFA8CFE09FB1811E3
:1003880040EA014108FB0EF0884202FA06F20BD956
:100398001CEB010108F1FF3A80F08880884240F2A6
:1003A8008580A8F102086144091AA4B2B1FBF9F0EA
:1003B80009FB101144EA014100FB0EFE8E4508D9E5
:1003C8001CEB010100F1FF346CD28E456AD902386A
:1003D800614440EA0840A0FB0294A1EB0E01A1424F
:1003E800C846A64656D353D05DB1B3EB080261EBBD
:1003F8000E0101FA07F722FA06F3F1401F43C5E997
:10040800007100263146BDE8F087C2F12003D840CC
:100418000CFA02FC21FA03F3914001434FEA1C470E
:100428001FFA8CFEB3FBF7F007FB10360B0C43EA00
:10043800064300FB0EF69E4204FA02F408D91CEBB0
:10044800030300F1FF382FD29E422DD902386344AE
:100458009B1B89B2B3FBF7F607FB163341EA03414E
:1004680006FB0EF38B4208D91CEB010106F1FF389D
:1004780016D28B4214D9023E6144C91A46EA004694
:1004880038E72E46284605E70646E3E61846F8E626
:100498004B45A9D2B9EB020864EB0C0E0138A3E76F
:1004A8004646EAE7204694E74046D1E7D0467BE750
:1004B800023B614432E7304609E76444023842E7C8
:1004C800704700BF80B400AF084B1B6800225A6217
:1004D80000BF064B1B685B6AB3F57A7FF9D300BF90
:1004E80000BFBD465DF8047B704700BF28000020B0
:1004F80080B584B000AF78600023FB600023FB6008
:1005080004E0FFF7DFFFFB680133FB60FA687B68F4
:100518009A42F6DB00BF00BF1037BD4680BD000021
:1005280080B500AF00220F21024800F0E9FD00BFAE
:1005380080BD00BF0004024080B584B000AF786081
:10054800FFF7EEFF0023FB7309E00F21084800F0D6
:10055800F0FD7868FFF7CCFFFB7B0133FB73FB7B77
:10056800052BF2D9FFF7DCFF00BF1037BD4680BD71
:100578000004024080B582B000AF786001220121FA
:10058800194800F0BDFD7868FFF7B2FF002201218D
:10059800154800F0B5FD01220221134800F0B0FD16
:1005A8007868FFF7A5FF002202210F4800F0A8FD98
:1005B800012204210C4800F0A3FD7868FFF798FF9A
:1005C80000220421084800F09BFD0122082106486A
:1005D80000F096FD7868FFF78BFFFFF7A1FF00BFDB
:1005E8000837BD4680BD00BF0004024080B582B018
:1005F80000AF786039607B68012B03D13868FFF75A
:100608009BFF02E03868FFF7B5FF00BF0837BD461B
:1006180080BD000080B582B000AF0123FB710023CC
:10062800BB7105237B7100F05FFA00F091F800F0D0
:1006380047F900F0F7F8444801F04AFA0121434825
:1006480000F046FD0346002B3AD117E002213F484F
:1006580000F03EFD0346002B10D1FB79002B0CBFA8
:1006680001230023DBB2FB710123BB7100BF022110
:10067800364800F02DFD0346002BF8D00121334801
:1006880000F026FD0346002BE0D0BB79012B08D1F2
:10069800FB797A7911461846FFF7A8FF0023BB714A
:1006A80050E07B79012B03D07B79013BDBB200E082
:1006B8000A237B71FB797A7911461846FFF796FF72
:1006C8000221224800F004FD0346002BB6D117E0B2
:1006D80001211E4800F0FCFC0346002B10D1FB79D9
:1006E800002B0CBF01230023DBB2FB710123BB717C
:1006F80000BF0121154800F0EBFC0346002BF8D0A1
:100708000221124800F0E4FC0346002BE0D0BB793C
:10071800012B08D1FB797A7911461846FFF766FF55
:100728000023BB710EE07B790A2B03D07B79013360
:10073800DBB200E001237B71FB797A791146184618
:10074800FFF754FF7AE700BF2800002000000240AE
:1007580080B594B000AF07F120033022002118467D
:1007680001F0C8FC07F10C0300221A605A609A6075
:10077800DA601A610023BB60284B1B6C274A43F0E0
:1007880080531364254B1B6C03F08053BB60BB681C
:1007980000237B60224B1B68214A43F4804313608B
:1007A8001F4B1B6803F480437B607B6801233B621B
:1007B8004FF480337B620223BB634FF48003FB63F7
:1007C80004233B64A8237B640223BB640423FB64E7
:1007D80007F12003184600F0C7FC0346002B01D0A0
:1007E80000F0CCF80F23FB6002233B6100237B6100
:1007F8004FF4A053BB614FF48053FB6107F10C0326
:100808000521184600F028FF0346002B01D000F010
:10081800B5F800BF5037BD4680BD00BF0038024064
:100828000070004080B586B000AF07F108030022D1
:100838001A605A609A60DA603B4600221A605A6071
:100848001D4B1E4A1A601C4B42F2D0025A601A4BCA
:1008580000229A60184B4FF6FF72DA60164B00229E
:100868001A61154B00229A61134801F0E1F803461A
:10087800002B01D000F082F84FF48053BB6007F1E1
:10088800080319460C4801F093F90346002B01D0E0
:1008980000F074F800233B6000237B603B46194658
:1008A800054801F087FB0346002B01D000F066F8ED
:1008B80000BF1837BD4680BD280000200004004056
:1008C80080B588B000AF07F10C0300221A605A60A7
:1008D8009A60DA601A610023BB60254B1B6B244ABF
:1008E80043F080031363224B1B6B03F08003BB6050
:1008F800BB6800237B601E4B1B6B1D4A43F0010342
:1009080013631B4B1B6B03F001037B607B680023A5
:100918003B60174B1B6B164A43F002031363144BDF
:100928001B6B03F002033B603B6800220F21114858
:1009380000F0E6FB0323FB6000233B6101237B619E
:1009480007F10C0319460C4800F026FA0F23FB6048
:1009580001233B6100237B610023BB6107F10C038A
:100968001946044800F018FA00BF2037BD4680BD7C
:1009780000380240000402400000024080B400AF8A
:1009880072B600BFFEE7000080B483B000AF00235A
:100998007B60104B5B6C0F4A43F4804353640D4BF0
:1009A8005B6C03F480437B607B6800233B60094BEE
:1009B8001B6C084A43F080531364064B1B6C03F00E
:1009C80080533B603B6800BF0C37BD465DF8047B35
:1009D800704700BF0038024080B485B000AF78602F
:1009E8007B681B680B4A93420DD10023FB600A4BBE
:1009F8001B6C094A43F002031364074B1B6C03F09A
:100A08000203FB60FB6800BF1437BD465DF8047B3A
:100A1800704700BF000400400038024080B400AFB7
:100A2800FEE780B400AFFEE780B400AFFEE780B415
:100A380000AFFEE780B400AFFEE780B400AF00BFB0
:100A4800BD465DF8047B704780B400AF00BFBD466B
:100A58005DF8047B704780B400AF00BFBD465DF809
:100A6800047B704780B500AF00F090F800BF80BDF0
:100A780080B400AF064BD3F88830054A43F47003BE
:100A8800C2F8883000BFBD465DF8047B704700BFE0
:100A980000ED00E0DFF834D00D480E490E4A00237F
:100AA80002E0D458C4500433C4188C42F9D30B4A1A
:100AB8000B4C002301E013600432A242FBD3FFF782
:100AC800D7FF01F0F3FAFFF7A5FD704700000220F9
:100AD800000000200C000020442100080C00002029
:100AE80074000020FEE7000080B500AF0E4B1B68C5
:100AF8000D4A43F4007313600B4B1B680A4A43F416
:100B080080631360084B1B68074A43F480731360C3
:100B1800032000F00DF90F2000F008F8FFF734FF6C
:100B28000023184680BD00BF003C024080B582B05B
:100B380000AF7860124B1A68124B1B7819464FF4B5
:100B48007A73B3FBF1F3B2FBF3F3184600F017F92D
:100B58000346002B01D001230EE07B680F2B0AD837
:100B6800002279684FF0FF3000F0EDF8064A7B6804
:100B78001360002300E0012318460837BD4680BDF6
:100B880000000020080000200400002080B400AF0E
:100B9800064B1B781A46064B1B681344044A13601D
:100BA80000BFBD465DF8047B704700BF0800002009
:100BB8007000002080B400AF034B1B681846BD4688
:100BC8005DF8047B704700BF7000002080B485B0DA
:100BD80000AF78607B6803F00703FB600C4BDB68B1
:100BE800BB60BA684FF6FF031340BB60FB681A028C
:100BF800BB68134343F0BF6343F40033BB60044A4C
:100C0800BB68D36000BF1437BD465DF8047B7047EE
:100C180000ED00E080B400AF044BDB681B0A03F072
:100C280007031846BD465DF8047B704700ED00E0F9
:100C380080B483B000AF03463960FB7197F9073081
:100C4800002B0ADB3B68DAB20C4997F9073012012E
:100C5800D2B20B4483F800230AE03B68DAB20849B1
:100C6800FB7903F00F03043B1201D2B20B441A764E
:100C780000BF0C37BD465DF8047B704700E100E01B
:100C880000ED00E080B489B000AFF860B9607A6028
:100C9800FB6803F00703FB61FB69C3F10703042B3F
:100CA80028BF0423BB61FB690433062B02D9FB6907
:100CB800033B00E000237B614FF0FF32BB6902FA7F
:100CC80003F3DA43BB681A407B699A404FF0FF315F
:100CD8007B6901FA03F3D9437B680B401343184639
:100CE8002437BD465DF8047B7047000080B582B0AC
:100CF80000AF78607B68013BB3F1807F01D30123AB
:100D08000FE00A4A7B68013B53600F214FF0FF3028
:100D1800FFF78EFF054B00229A60044B07221A60EA
:100D2800002318460837BD4680BD00BF10E000E02C
:100D380080B582B000AF78607868FFF747FF00BFE2
:100D48000837BD4680BD80B586B000AF0346B960A0
:100D58007A60FB7300237B61FFF75CFF78617A6838
:100D6800B9687869FFF78EFF024697F90F30114688
:100D78001846FFF75DFF00BF1837BD4680BD80B538
:100D880082B000AF78607868FFF7B0FF0346184676
:100D98000837BD4680BD000080B489B000AF7860D8
:100DA800396000237B6100233B610023BB61002382
:100DB800FB616BE10122FB6902FA03F37B613B688B
:100DC8001B687A6913403B613A697B699A4240F033
:100DD8005A813B685B6803F00303012B05D03B682D
:100DE8005B6803F00303022B30D17B689B68BB610F
:100DF800FB695B00032202FA03F3DB43BA69134081
:100E0800BB613B68DA68FB695B0002FA03F3BA6905
:100E18001343BB617B68BA699A607B685B68BB6196
:100E28000122FB6902FA03F3DB43BA691340BB6191
:100E38003B685B681B0903F00102FB6902FA03F3D4
:100E4800BA691343BB617B68BA695A603B685B68DF
:100E580003F00303032B17D07B68DB68BB61FB69D6
:100E68005B00032202FA03F3DB43BA691340BB6158
:100E78003B689A68FB695B0002FA03F3BA6913439B
:100E8800BB617B68BA69DA603B685B6803F003039F
:100E9800022B23D1FB69DA087B68083253F8223029
:100EA800BB61FB6903F007039B000F2202FA03F3FF
:100EB800DB43BA691340BB613B681A69FB6903F0FD
:100EC80007039B0002FA03F3BA691343BB61FB698A
:100ED800DA087B680832B96943F822107B681B6816
:100EE800BB61FB695B00032202FA03F3DB43BA69C7
:100EF8001340BB613B685B6803F00302FB695B005E
:100F080002FA03F3BA691343BB617B68BA691A60D2
:100F18003B685B6803F44033002B00F0B480002387
:100F2800FB60604B5B6C5F4A43F4804353645D4BEA
:100F38005B6C03F48043FB60FB685B4AFB699B08BE
:100F4800023352F82330BB61FB6903F003039B00B3
:100F58000F2202FA03F3DB43BA691340BB617B68D3
:100F6800524A93422BD07B68514A934225D07B68E2
:100F7800504A93421FD07B684F4A934219D07B68EE
:100F88004E4A934213D07B684D4A93420DD07B68FA
:100F98004C4A934207D07B684B4A934201D10723BE
:100FA8000EE008230CE006230AE0052308E00423EA
:100FB80006E0032304E0022302E0012300E000230B
:100FC800FA6902F0030292009340BA691343BB61C5
:100FD8003549FB699B080233BA6941F823203B4B2A
:100FE8009B68BB613B69DB43BA691340BB613B68E3
:100FF8005B6803F48013002B03D0BA693B69134381
:10100800BB61324ABB699360304BDB68BB613B69AB
:10101800DB43BA691340BB613B685B6803F40013A8
:10102800002B03D0BA693B691343BB61274ABB69EC
:10103800D360264B5B68BB613B69DB43BA691340ED
:10104800BB613B685B6803F40033002B03D0BA69CB
:101058003B691343BB611D4ABB6953601B4B1B684B
:10106800BB613B69DB43BA691340BB613B685B68A2
:1010780003F48033002B03D0BA693B691343BB6187
:10108800124ABB691360FB690133FB61FB690F2BD3
:101098007FF690AE00BF00BF2437BD465DF8047BE5
:1010A800704700BF0038024000380140000002408D
:1010B8000004024000080240000C024000100240F8
:1010C8000014024000180240001C0240003C01408D
:1010D80080B485B000AF78600B467B807B681A6966
:1010E8007B881340002B02D00123FB7301E000230F
:1010F800FB73FB7B18461437BD465DF8047B7047CD
:1011080080B483B000AF78600B467B8013467B7059
:101118007B78002B03D07A887B689A6103E07B8810
:101128001A047B689A6100BF0C37BD465DF8047BE2
:10113800704780B485B000AF78600B467B807B68D1
:101148005B69FB607A88FB6813401A04FB68D94323
:101158007B880B401A437B689A6100BF1437BD46F1
:101168005DF8047B7047000080B586B000AF7860FA
:101178007B68002B01D1012367E27B681B6803F0C1
:101188000103002B75D0884B9B6803F00C03042BDC
:101198000CD0854B9B6803F00C03082B12D1824BB3
:1011A8005B6803F48003B3F5800F0BD17E4B1B689B
:1011B80003F40033002B5BD07B685B68002B57D1AE
:1011C800012342E27B685B68B3F5803F06D1764B2A
:1011D8001B68754A43F4803313601DE07B685B68C5
:1011E800B3F5A02F0CD1704B1B686F4A43F48023D2
:1011F80013606D4B1B686C4A43F4803313600BE03B
:10120800694B1B68684A23F480331360664B1B687C
:10121800654A23F4802313607B685B68002B13D036
:10122800FFF7C8FC386108E0FFF7C4FC02463B69D9
:10123800D31A642B01D9032307E25B4B1B6803F421
:101248000033002BF0D014E0FFF7B4FC386108E05D
:10125800FFF7B0FC02463B69D31A642B01D903237C
:10126800F3E1514B1B6803F40033002BF0D100E08D
:1012780000BF7B681B6803F00203002B63D04A4B56
:101288009B6803F00C03002B0BD0474B9B6803F0C3
:101298000C03082B1CD1444B5B6803F48003002B20
:1012A80016D1414B1B6803F00203002B05D07B6865
:1012B800DB68012B01D00123C7E13B4B1B6823F0FE
:1012C800F8027B681B69DB00374913430B603AE07F
:1012D8007B68DB68002B20D0344B01221A60FFF7B3
:1012E80069FC386108E0FFF765FC02463B69D31AE0
:1012F800022B01D90323A8E12B4B1B6803F002033F
:10130800002BF0D0284B1B6823F0F8027B681B6980
:10131800DB00254913430B6015E0244B00221A60BB
:10132800FFF748FC386108E0FFF744FC02463B69D8
:10133800D31A022B01D9032387E11B4B1B6803F047
:101348000203002BF0D17B681B6803F00803002B15
:1013580036D07B685B69002B16D0154B01221A60CA
:10136800FFF728FC386108E0FFF724FC02463B69D8
:10137800D31A022B01D9032367E10B4B5B6F03F0F0
:101388000203002BF0D01BE0094B00221A60FFF784
:1013980011FC38610EE0FFF70DFC02463B69D31AD9
:1013A800022B07D9032350E10038024000004742CE
:1013B800800E4742884B5B6F03F00203002BEAD193
:1013C8007B681B6803F00403002B00F09780002360
:1013D800FB75814B1B6C03F08053002B0FD100234E
:1013E800BB607D4B1B6C7C4A43F0805313647A4B83
:1013F8001B6C03F08053BB60BB680123FB75774B04
:101408001B6803F48073002B18D1744B1B68734A54
:1014180043F480731360FFF7CDFB386108E0FFF7F2
:10142800C9FB02463B69D31A022B01D903230CE1FD
:101438006A4B1B6803F48073002BF0D07B689B68B1
:10144800012B06D1644B1B6F634A43F001031367FA
:101458001CE07B689B68052B0CD15F4B1B6F5E4AB9
:1014680043F0040313675C4B1B6F5B4A43F00103B3
:1014780013670BE0584B1B6F574A23F001031367A0
:10148800554B1B6F544A23F0040313677B689B6812
:10149800002B15D0FFF78EFB38610AE0FFF78AFBB7
:1014A80002463B69D31A41F28832934201D9032399
:1014B800CBE0494B1B6F03F00203002BEED014E086
:1014C800FFF778FB38610AE0FFF774FB02463B69D7
:1014D800D31A41F28832934201D90323B5E03E4B37
:1014E8001B6F03F00203002BEED1FB7D012B05D10E
:1014F800394B1B6C384A23F0805313647B689B6913
:10150800002B00F0A180344B9B6803F00C03082BE0
:101518005CD07B689B69022B41D1314B00221A6059
:10152800FFF748FB386108E0FFF744FB02463B69D8
:10153800D31A022B01D9032387E0274B1B6803F03A
:101548000073002BF0D17B68DA697B681B6A1A4349
:101558007B685B6A9B011A437B689B6A5B08013B5B
:101568001B041A437B68DB6A1B061B4913434B6049
:101578001B4B01221A60FFF71DFB386108E0FFF7DB
:1015880019FB02463B69D31A022B01D903235CE0FD
:10159800114B1B6803F00073002BF0D054E0104B84
:1015A80000221A60FFF706FB386108E0FFF702FB2C
:1015B80002463B69D31A022B01D9032345E0064BA7
:1015C8001B6803F00073002BF0D13DE07B689B693A
:1015D800012B07D1012338E0003802400070004099
:1015E800600047421B4B5B68FB607B689B69012B73
:1015F80028D0FB6803F480027B68DB699A4221D11A
:10160800FB6803F03F027B681B6A9A421AD1FA68AA
:1016180047F6C07313407A68526A9201934211D117
:10162800FB6803F440327B689B6A5B08013B1B0440
:101638009A4207D1FB6803F070627B68DB6A1B067D
:101648009A4201D0012300E0002318461837BD460E
:1016580080BD00BF0038024080B584B000AF78601C
:1016680039607B68002B01D10123CCE0684B1B68F3
:1016780003F007033A689A420CD9654B3A68D2B22C
:101688001A70634B1B6803F007033A689A4201D04B
:101698000123B8E07B681B6803F00203002B20D00D
:1016A8007B681B6803F00403002B05D0594B9B682B
:1016B800584A43F4E05393607B681B6803F00803BF
:1016C800002B05D0534B9B68524A43F46043936008
:1016D800504B9B6823F0F0027B689B684D4913438D
:1016E8008B607B681B6803F00103002B44D07B6888
:1016F8005B68012B07D1474B1B6803F40033002BB1
:1017080019D101237FE07B685B68022B03D07B68DB
:101718005B68032B07D13F4B1B6803F00073002B5A
:1017280009D101236FE03B4B1B6803F00203002B38
:1017380001D1012367E0374B9B6823F003027B68E4
:101748005B68344913438B60FFF734FAF8600AE0AA
:10175800FFF730FA0246FB68D31A41F28832934207
:1017680001D903234FE02B4B9B6803F00C027B68E5
:101778005B689B009A42EBD1254B1B6803F007037B
:101788003A689A420CD2224B3A68D2B21A70204B6D
:101798001B6803F007033A689A4201D0012332E03C
:1017A8007B681B6803F00403002B08D0194B9B6867
:1017B80023F4E0527B68DB68164913438B607B682F
:1017C8001B6803F00803002B09D0124B9B6823F415
:1017D80060427B681B69DB000E4913438B6000F095
:1017E80021F802460B4B9B681B0903F00F030A49BB
:1017F800CB5C22FA03F3094A1360094B1B681846AD
:10180800FFF794F9002318461037BD4680BD00BF86
:10181800003C02400038024024210008000000205B
:10182800040000202DE9B04F94B000AF00237B6482
:101838000023FB6400233B640023BB64794B9B6853
:1018480003F00C03082B0DD0082B00F2E180002BCD
:1018580002D0042B03D0DBE0734BBB64DBE0734B9B
:10186800BB64D8E06F4B5B6803F03F037B646D4B50
:101878005B6803F48003002B63D06A4B5B689B09A9
:101888000022BB63FA63BB6BC3F308033B6300230B
:101898007B63D7E90C4522462B464FF000004FF0FA
:1018A8000001590141EAD261500102460B46214626
:1018B800511A3961294663EB01037B614FF000023D
:1018C8004FF00003D7E904AB59468B01514643EA70
:1018D800916351468A015146B2EB0108594663EBC0
:1018E80001094FF000024FF000034FEAC90343EA31
:1018F80058734FEAC80290469946234618EB0303EB
:10190800BB602B4649EB0303FB604FF000024FF02E
:101918000003D7E9024529464B02214643EAD15341
:1019280021464A02104619467B6C0022BB62FA62C5
:10193800D7E90A23FEF744FC02460B461346FB642C
:1019480058E0384B5B689B09002218461146C0F3E3
:1019580008033B6200237B62D7E9088942464B466D
:101968004FF000004FF00001590141EAD2615001E7
:1019780002460B464146B2EB010A494663EB010BAE
:101988004FF000024FF000034FEA8B1343EA9A63CB
:101998004FEA8A12B2EB0A0463EB0B054FF0000220
:1019A8004FF00003EB0043EA5473E20014461D466F
:1019B8004346E3183B604B4645EB03037B604FF01F
:1019C80000024FF00003D7E9004529468B02214663
:1019D80043EA915321468A02104619467B6C00223D
:1019E800BB61FA61D7E90623FEF7EAFB02460B461C
:1019F8001346FB640B4B5B681B0C03F003030133BA
:101A08005B003B64FA6C3B6CB2FBF3F3BB6402E033
:101A1800054BBB6400BFBB6C18465037BD46BDE8DC
:101A2800B08F00BF003802400024F40000127A0092
:101A380080B582B000AF78607B68002B01D10123AC
:101A480041E07B6893F83D30DBB2002B06D17B6820
:101A5800002283F83C207868FEF7BEFF7B680222EC
:101A680083F83D207B681A687B6804331946104662
:101A780000F066F97B68012283F846207B68012222
:101A880083F83E207B68012283F83F207B6801228F
:101A980083F840207B68012283F841207B6801227B
:101AA80083F842207B68012283F843207B68012267
:101AB80083F844207B68012283F845207B68012253
:101AC80083F83D20002318460837BD4680BD000036
:101AD80080B485B000AF78607B6893F83D30DBB2A6
:101AE800012B01D001234EE07B68022283F83D20C0
:101AF8007B681B68DA687B681B6842F00102DA6061
:101B08007B681B68234A934222D07B681B68B3F129
:101B1800804F1DD07B681B681F4A934218D07B6892
:101B28001B681E4A934213D07B681B681C4A934269
:101B38000ED07B681B681B4A934209D07B681B68E0
:101B4800194A934204D07B681B68184A934211D102
:101B58007B681B689B6803F00703FB60FB68062B28
:101B680010D07B681B681A687B681B6842F001020A
:101B78001A6007E07B681B681A687B681B6842F07C
:101B880001021A60002318461437BD465DF8047B2D
:101B9800704700BF000001400004004000080040FA
:101BA800000C0040000401400040014000180040C3
:101BB80080B584B000AF786039600023FB737B6820
:101BC80093F83C30012B01D10223B4E07B68012259
:101BD80083F83C207B68022283F83D207B681B68E1
:101BE8009B68BB60BB6823F07703BB60BB6823F4CA
:101BF8007F43BB607B681B68BA689A603B681B6858
:101C0800B3F5005F3ED0B3F5005F00F28780B3F50F
:101C1800805F00F08680B3F5805F7FD8702B1AD084
:101C2800702B7BD8602B50D0602B77D8502B3CD0B2
:101C3800502B73D8402B58D0402B6FD8302B64D002
:101C4800302B6BD8202B60D0202B67D8002B5CD092
:101C5800102B5AD062E07B6818683B6899683B682B
:101C68005A683B68DB6800F085F97B681B689B68ED
:101C7800BB60BB6843F07703BB607B681B68BA68CE
:101C88009A604FE07B6818683B6899683B685A68B7
:101C98003B68DB6800F06EF97B681B689A687B68B4
:101CA8001B6842F480429A603CE07B6818683B6895
:101CB80059683B68DB681A4600F0E2F87B681B68E5
:101CC8005021184600F03BF92CE07B6818683B6807
:101CD80059683B68DB681A4600F001F97B681B68A5
:101CE8006021184600F02BF91CE07B6818683B68F7
:101CF80059683B68DB681A4600F0C2F87B681B68C5
:101D08004021184600F01BF90CE07B681A683B6814
:101D18001B681946104600F012F903E00123FB7313
:101D280000E000BF7B68012283F83D207B68002229
:101D380083F83C20FB7B18461037BD4680BD000069
:101D480080B485B000AF786039607B681B68FB6041
:101D58007B68404A934213D07B68B3F1804F0FD021
:101D68007B683D4A93420BD07B683C4A934207D03C
:101D78007B683B4A934203D07B683A4A934208D136
:101D8800FB6823F07003FB603B685B68FA681343E9
:101D9800FB607B682F4A93422BD07B68B3F1804F5E
:101DA80027D07B682C4A934223D07B682B4A9342E6
:101DB8001FD07B682A4A93421BD07B68294A9342EA
:101DC80017D07B68284A934213D07B68274A9342EE
:101DD8000FD07B68264A93420BD07B68254A9342F2
:101DE80007D07B68244A934203D07B68234A9342F6
:101DF80008D1FB6823F44073FB603B68DB68FA6832
:101E08001343FB60FB6823F080023B685B69134364
:101E1800FB607B68FA681A603B689A687B68DA62DC
:101E28003B681A687B689A627B680A4A934203D0C7
:101E38007B680C4A934203D13B681A697B681A6332
:101E48007B6801225A6100BF1437BD465DF8047BE8
:101E5800704700BF00000140000400400008004037
:101E6800000C0040000401400040014000440140D3
:101E78000048014000180040001C004000200040BD
:101E880080B487B000AFF860B9607A60FB681B6AFD
:101E98007B61FB681B6A23F00102FB681A62FB681E
:101EA8009B693B613B6923F0F0033B617B681B0145
:101EB8003A6913433B617B6923F00A037B617A69C2
:101EC800BB6813437B61FB683A699A61FB687A696E
:101ED8001A6200BF1C37BD465DF8047B704780B4AA
:101EE80087B000AFF860B9607A60FB681B6A23F0BE
:101EF8001002FB681A62FB689B697B61FB681B6ABE
:101F08003B617B6923F470437B617B681B037A69BF
:101F180013437B613B6923F0A0033B61BB681B0152
:101F28003A6913433B61FB687A699A61FB683A69CD
:101F38001A6200BF1C37BD465DF8047B704780B449
:101F480085B000AF786039607B689B68FB60FB6890
:101F580023F07003FB603A68FB68134343F0070300
:101F6800FB607B68FA689A6000BF1437BD465DF86D
:101F7800047B704780B487B000AFF860B9607A60BE
:101F88003B60FB689B687B617B6923F47F437B61D3
:101F98003B681A027B681A43BB6813437A69134388
:101FA8007B61FB687A699A6000BF1C37BD465DF8A3
:101FB800047B704780B485B000AF786039607B6877
:101FC80093F83C30012B01D102235AE07B680122AF
:101FD80083F83C207B68022283F83D207B681B68DD
:101FE8005B68FB607B681B689B68BB60FB6823F0D1
:101FF8007003FB603B681B68FA681343FB607B68EF
:102008001B68FA685A607B681B68214A934222D091
:102018007B681B68B3F1804F1DD07B681B681D4A25
:10202800934218D07B681B681B4A934213D07B6885
:102038001B681A4A93420ED07B681B68184A934261
:1020480009D07B681B68174A934204D07B681B68D9
:10205800154A93420CD1BB6823F08003BB603B68F0
:102068005B68BA681343BB607B681B68BA689A6090
:102078007B68012283F83D207B68002283F83C209E
:10208800002318461437BD465DF8047B704700BF2F
:10209800000001400004004000080040000C00401F
:1020A80000040140004001400018004070B50D4D8B
:1020B8000D4C641BA4100026A64209D10B4D0C4CF4
:1020C80000F020F8641BA4100026A64205D170BDBC
:1020D80055F8043B98470136EEE755F8043B984716
:1020E8000136F2E73C2100083C2100083C210008A9
:1020F8004021000802440346934200D1704703F888
:10210800011BF9E7F8B500BFF8BC08BC9E4670474C
:0C211800F8B500BFF8BC08BC9E4670473C
:102124000000000000000000010203040607080983
:08213400C4E0FF7F0100000080
:04213C00AD010008E9
:042140008901000809
:0C2144000024F400100000000100000066
:0400000508000A9D48
:00000001FF
